:020000040800F2
:100000003809002069020008770200087902000818
:100010007B0200087D0200087F020008000000004B
:100020000000000000000000000000008102000845
:100030008302000800000000850200088702000813
:100040008902000889020008890200088902000864
:100050008902000889020008890200088902000854
:100060008902000889020008890200088902000844
:100070008902000889020008890200088902000834
:100080008902000889020008890200088902000824
:100090008902000889020008890200088506000814
:1000A0008902000889020008890200088902000804
:1000B000AD390008993B0008890200088902000850
:1000C00089020008890200088902000889020008E4
:1000D00089020008890200088902000889020008D4
:1000E00065060008890200088902000889020008E4
:1000F00089020008890200088902000889020008B4
:1001000089020008890200088902000889020008A3
:1001100089020008A93E0008890200088902000837
:100120008902000889020008890200088902000883
:100130008902000889020008890200088902000873
:100140008902000889020008890200088902000863
:100150008902000889020008890200088902000853
:100160008902000889020008890200088902000843
:100170008902000889020008890200088902000833
:10018000890200088902000800F002F800F05CF81B
:100190000AA090E8000C82448344AAF10107DA45E2
:1001A00001D100F051F8AFF2090EBAE80F0013F0D8
:1001B000010F18BFFB1A43F0010318470C7E04001F
:1001C0002C7E04000A444FF0000C10F8013B13F0A1
:1001D000070408BF10F8014B1D1108BF10F8015BA0
:1001E000641E05D010F8016B641E01F8016BF9D193
:1001F00013F0080F1EBF10F8014BAD1C0C1B09D1EA
:100200006D1E58BF01F801CBFAD505E014F8016B5B
:1002100001F8016B6D1EF9D59142D6D370470000ED
:100220000023002400250026103A28BF78C1FBD8FF
:10023000520728BF30C148BF0B6070471FB504F09C
:100240006FFF1FBD10B510BD00F073F81146FFF72A
:10025000F5FF04F0F3FA00F091F803B4FFF7F2FFB2
:1002600003BC00F099F800000B48016841F47001EC
:1002700001600A480047FEE7FEE7FEE7FEE7FEE70B
:10028000FEE7FEE7FEE7FEE7FEE70000044805495B
:10029000034A054B7047000088ED00E08901000823
:1002A0003805002038090020380500204FF0013CB7
:1002B00050F8042B51F8043B9A4221D1A2EB0C03D5
:1002C000934313EACC1317D150F8042B51F8043B95
:1002D0009A4215D1A2EB0C03934313EACC130BD132
:1002E00050F8042B51F8043B9A4209D1A2EB0C03BD
:1002F000934313EACC13DBD04FF00000704700BFEC
:10030000D01A01BAB1FA81F101F0180122FA01F014
:10031000CB40C1F12001DBB2C0B2C01A2CFA01F30C
:10032000D11A914311EAC311E6D170477047704763
:100330007047754600F02CF8AE46050069465346F6
:1003400020F00700854618B020B5FFF79FFFBDE8F5
:1003500020404FF000064FF000074FF000084FF02C
:10036000000B21F00701AC46ACE8C009ACE8C009BD
:10037000ACE8C009ACE8C0098D46704710B504462A
:10038000AFF300802046BDE81040FFF766BF0000D5
:1003900000487047D804002001491820ABBEFEE792
:1003A00026000200704710B5022004F0F9F910BDD4
:1003B00010B500200F4908600F48006820F0404049
:1003C0000D4908600846006840F080400860FFF76B
:1003D000EAFF00200949C1F8BC02FFF7E4FF012051
:1003E00004490860FFF7DFFF00200449C1F8A802B4
:1003F00010BD0000A882404200040240008040423C
:100400001CB50D48006840F002000B49086001204F
:10041000032100230246CDE900108102074800F0C5
:1004200098FA0120032100230246CDE90010C10300
:10043000024800F08EFA1CBD303802400004024031
:1004400010B500200F4908600F48006820F04040B8
:100450000D4908600846006840F080400860FFF7DA
:10046000A2FF01200949C1F8BC02FFF79CFF01204F
:1004700004490860FFF797FF00200449C1F8A8026B
:1004800010BD0000A88240420004024000804042AB
:1004900070B5054600241548006820F04040134917
:1004A00008600846006808601E2004F079F90026FC
:1004B00012E000200E490860FFF775FF01200D498A
:1004C000C1F8A8026006040E09486C38006808B13B
:1004D000601CC4B2701CC6B2082EEADB15B9FFF767
:1004E000AFFF01E0FFF764FF204670BD000402404B
:1004F000A88240420080404270B50446134800681C
:1005000020F04040114908600846006840F08040F3
:10051000086000200E490860FFF745FF002512E043
:10052000E0090B49143108606006040E01200949F6
:10053000C1F8A802FFF737FF002005490860FFF760
:1005400032FF681CC5B2082DEADB70BD0004024012
:10055000A88240420080404210B50F48006820F059
:1005600040400D4908600846006840F0804008603F
:1005700001200A4908600A49C1F8A8021E2004F0B7
:100580000FF9002005490860FFF70DFF002004491E
:10059000C1F8A80210BD000000040240BC82404225
:1005A0000080404210B50E48006820F040400C49E1
:1005B00008600846006840F0804008600120094952
:1005C00008601E2004F0ECF800200749C1F8BC02C6
:1005D000FFF7E9FE012003491431086010BD000057
:1005E00000040240A88240420080404210B500242E
:1005F0001248006820F04040104908600846006832
:10060000086001200E4908600E49C1F8A802FFF7F2
:10061000CAFE09E0601CC4B2FA2C03DDFFF7C2FF7A
:10062000012010BDFFF7BFFE054880380068002894
:10063000F0D103491439086000BFF2E7000402401A
:10064000BC8240420080404270B505460C46002600
:10065000284603F013F8064626EA0401284603F06C
:100660004DFE70BD10B54FF4806000F07DF830B1E4
:100670000320034908604FF4806000F01DF810BDAE
:100680000002002010B54FF4807000F06DF828B122
:10069000012008490860000200F00EF84FF40070D5
:1006A00000F062F828B1022002490860000200F060
:1006B00003F810BD000200200149086070470000E7
:1006C000143C014000B585B00121202002F040FE1D
:1006D0000121880302F06CFE00208DF80800012043
:1006E0008DF80B004FF4E060019001A91D4800F067
:1006F000B1F80821052003F0EFF80921052003F0E7
:10070000EBF80A21052003F0E7F84FF4E0600390CE
:1007100000208DF810000C208DF8110001208DF8BC
:10072000120003A800F02CF817208DF800000F200D
:100730008DF801008DF8020001208DF80300684655
:1007400002F00AFC28208DF800000F208DF801002F
:100750008DF8020001208DF80300684602F0FCFBD2
:1007600005B000BD0014024001460020034A126893
:100770000A400AB1012000E000207047143C01400B
:10078000002123498279002A3AD00A461268036878
:100790009A430B461A600A1D126803689A430B1DA0
:1007A0001A60027911440A6803681A430A60184AF9
:1007B0000832126803689A43154B08331A601A1DF1
:1007C000126803689A43124B0C331A604279102A5C
:1007D0000ED11A1F126803681A430D4B08331A60B2
:1007E0001A1D126803681A43094B0C331A600DE096
:1007F0000749427911440A6803681A430A6005E010
:10080000027911440A6803689A430A60704700003D
:10081000003C014030B5CC1000F1200353F82430E7
:100820004C07E50E0F24AC40A343CD1000F120048B
:1008300044F82530CC1000F1200353F824304C0745
:10084000E40E02FA04F42343CD1000F1200444F82E
:10085000253030BDF0B50A4600210023002400BF3A
:100860003DE0012505FA01F3156805EA03049C4201
:1008700034D105684F000326BE40B54305601579A5
:100880004E00B5400668354305601579012D02D04C
:100890001579022D16D185684F000326BE40B54359
:1008A000856055794E00B54086683543856045685A
:1008B00001268E40B5434560456896798E40B6B2B4
:1008C00035434560C5684F000326BE40B543C5604B
:1008D000D5794E00B540C6683543C560491C10291E
:1008E000BFD3F0BDF0B5002300244D07ED0E02FA92
:1008F00005F3CE1000F1200555F826504E07F70EEF
:100900000F26BE40B543CF1000F1200646F8275011
:10091000CE1000F1200555F8265045EA0304CE100C
:1009200000F1200545F82640F0BD0246002013697D
:100930000B400BB1012000E0002070470246002070
:1009400053690B400BB1012000E000207047418348
:1009500070472DE9F0470C46DDE9086700210025C6
:100960008C4600BF60E04FF0010808FA01F504EA88
:10097000050CAC4557D1D0F800804FEA410A4FF042
:10098000030909FA0AF928EA0908C0F80080D0F832
:1009900000804FEA410902FA09F948EA0908C0F85B
:1009A0000080012A01D0022A27D1D0F808804FEA1E
:1009B000410A4FF0030909FA0AF928EA0908C0F8C0
:1009C0000880D0F808804FEA410906FA09F948EA98
:1009D0000908C0F80880D0F804904FF0010808FA20
:1009E00001F829EA0809C0F80490D0F8048003FA55
:1009F00001F948EA0908C0F80480D0F80C804FEAF1
:100A0000410A4FF0030909FA0AF928EA0908C0F86F
:100A10000C80D0F80C804FEA410907FA09F948EA3E
:100A20000908C0F80C80491C10299CD3BDE8F08748
:100A3000018370470AB1018300E0418370470000E1
:100A40001FB53548006840F0400033490860012078
:100A500000210B460A46CDE9001001022F48FFF79E
:100A600078FF0120032100230246CDE90010C103D5
:100A70002A48FFF76EFFFFF7C3FC002028490860F3
:100A80000A2003F071FE01202649C1F8BC020A20A9
:100A900003F06AFE00200090034602464FF4807186
:100AA00001901E48FFF755FF642003F05DFE04220D
:100AB00002A948F2401000F03BF800208DF80C002D
:100AC00019A102A8FFF7F2FB20BB02208DF8080055
:100AD000012202A948F2400000F084F9012202A993
:100AE00048F2470000F024F89DF80800602802DA78
:100AF000012000F049F90A2003F036FE00208DF8AD
:100B00000800012202A948F2400000F06BF9002021
:100B100004B010BD0020FBE730380240001802404E
:100B2000BC02434200004342393134370000000028
:100B30002DE9F04105460F461646FFF70DFD28202A
:100B4000FFF7DAFCFFF752FD2812FFF7D5FCFFF79D
:100B50004DFDE8B2FFF7D0FCFFF748FDFFF7FCFCC6
:100B60002920FFF7C9FCFFF741FD00240BE0711EAF
:100B7000A14201D0012100E000210846FFF788FCD6
:100B80003855601CC4B2B442F1DBFFF70BFDBDE881
:100B9000F081000071B583B000240026764800780B
:100BA000401C75490870084600780A2190FBF1F254
:100BB00001FB120018B1704800780A287EDA012281
:100BC00003A948F24E10FFF7B3FF00200190012265
:100BD00001A948F24E1000F005F99DF80C0000F054
:100BE0000F0000286AD09DF80C0000F00F000628C6
:100BF000E4DA9DF80C0000F00F01FF208840C0B23D
:100C000001905E4890F820509DF80400C043C0B2A7
:100C100040F0C000594981F820000846818981824E
:100C2000C18AC18300244CE0544890F8200001217F
:100C3000A140084020B3524931F81400042202A90F
:100C4000FFF776FF4D4890F8300000F00100C0B18A
:100C50009DF808009DF8091000EB012081B247487B
:100C6000163020F814109DF80A009DF80B1000EBC8
:100C70000120C0F5487081B240480C3020F81410B3
:100C80001BE09DF808009DF8091000EB01203D498C
:100C90000988081A81B239480C3020F814109DF8E0
:100CA0000A009DF80B1000EB012036494988081A0C
:100CB00081B23248163020F8141000E031E0601C98
:100CC000C4B2052CB0DB01262C4880892D49098847
:100CD000884205DC2948C08A2A49498888421DDDA6
:100CE0009DF80C0000F00F0001280ADD2348C089A0
:100CF000224988810846008BC88200201E4908705E
:100D00000FE01E48808A1D4988810846C08BC88232
:100D100080200390084680F8205002E00020164909
:100D200008709DF80C0000F08F00802819D113483E
:100D300090F8200000F0800038B1104890F82000B2
:100D400020F080000D4981F820004FF6FF700B491C
:100D50008881C882084690F8200000F0E00081F801
:100D6000200005480078F02802DD0A2002490870BA
:100D7000304604B070BD0000640100203001002046
:100D8000027F0408A004002038B505460024002096
:100D90008DF800008DF8015000BF09E09DF80000BB
:100DA0000F49095D0844C0B28DF80000601CC4B250
:100DB000B82CF3D39DF80000C043401CC0B28DF89E
:100DC0000000B822064948F2470000F00BF8022262
:100DD000694648F2FF0000F005F8002038BD000029
:100DE0004A7E04082DE9F04104460E4617464FF0AE
:100DF0000008FFF7B1FB2820FFF77EFBFFF7F6FBAB
:100E00002012FFF779FBFFF7F1FBE0B2FFF774FB6D
:100E1000FFF7ECFB00250BE0705DFFF76DFBFFF7C4
:100E2000E5FB8046B8F1000F00D003E0681CC5B2B6
:100E3000BD42F1DB00BFFFF7B5FB4046BDE8F081E6
:100E40002DE9F0410746884600248C48416800207F
:100E500088478B48007808280BDB002088490870F9
:100E6000002504E0202087494855681C85B20A2DDA
:100E7000F8DB824890F8200000F0800000287DD048
:100E80000025E3E00026C0E07C48818906EB86006F
:100E900007EB4010A030814271DA7848808906EB78
:100EA000860107EB4111884269DD7448C18AC5EBB0
:100EB000051008EB80003C308142EDDA6F48C08AB3
:100EC000C5EB051108EB81018842EDDD05EB45001E
:100ED0003044401CC4B26C48007800287ED1012CFC
:100EE00008D13121664802780078401C644B1870A4
:100EF00064488154022C08D132216148027800787C
:100F0000401C5F4B18705F488154032C08D133217B
:100F10005B4802780078401C594B1870594881543E
:100F2000042C08D13421564802780078401C544BD8
:100F3000187054488154052C08D135215048027846
:100F40000078401C4E4B18704E488154062C08D136
:100F500036214B4802780078401C494B18704948AC
:100F60008154072C08D13721454802780078401C6D
:100F7000434B187043488154082C01E06AE042E07A
:100F800008D138213E4802780078401C3C4B18704C
:100F90003C488154092C08D139213948027800781D
:100FA000401C374B1870374881540A2C08D1302127
:100FB000334802780078401C314B18703148815416
:100FC0000B2C09D12E480078401E2D490870202096
:100FD0002C492B4A127888540C2C00E00BE001D1EC
:100FE00003F074FA0D2C0AD128480068012803D1B7
:100FF00000202649086002E0012024490860012001
:101000002149087004E0701C86B2032EFFF63CAF45
:1010100000BFCCB11E480078A04201D1002412E0EC
:101020001B480078401EC2B200234146384600F0FB
:101030009DF9174804700078401EC2B20123414652
:10104000384600F093F904E0681C85B2052DFFF6E0
:1010500019AF10E00E48007868B10D480078401EC6
:10106000C2B200234146384600F080F9002008490A
:101070000870054908702046BDE8F0813001002065
:10108000FB010020AE040020040200200800002024
:10109000060200202DE9F041074688460024A448B6
:1010A000416800208847A348007808280BDB00200F
:1010B000A0490870002504E020209F494855681C7D
:1010C00085B2092DF8DB9A4890F8200000F08000E6
:1010D00000287DD0002513E10026F0E094488189A6
:1010E00006EB860007EB4010A030814271DA904891
:1010F000808906EB860107EB4111884269DD8C4847
:10110000C18AC5EB051008EB80003C308142EDDA66
:101110008748C08AC5EB051108EB81018842EDDDE7
:1011200005EB45003044401CC4B2844800780028D8
:101130007ED1012C08D131217E4802780078401CF4
:101140007C4B18707C488154022C08D1322179489C
:1011500002780078401C774B187077488154032C34
:1011600008D13321734802780078401C714B187005
:1011700071488154042C08D134216E4802780078DB
:10118000401C6C4B18706C488154052C08D13522DA
:10119000684801780078401C664B187066484254D5
:1011A000062C08D13621634802780078401C614B38
:1011B000187061488154072C08D137215D480278A6
:1011C0000078401C5B4B18705B488154082C01E090
:1011D0009AE072E008D13821564802780078401C25
:1011E000544B187054488154092C08D13921514866
:1011F00002780078401C4F4B18704F4881540A2CDD
:1012000008D130214B4802780078401C494B1870B7
:10121000494881540B2C09D146480078401E454965
:10122000087020204449434A127888540C2C00E06E
:101230003BE031D13F48007800282DDD03F0BCF8B9
:101240003FA24FF49671B42001F055FD002002F04A
:101250004FFF384802780021374802F0E5FF354853
:1012600002780021394802F085FF32480078384979
:10127000087001221021364802F0D6FF0122102109
:10128000334802F077FF0A2003F06EFA31A24FF4E0
:101290009671B42001F02FFD0D2C0AD13148006861
:1012A000012803D100202F49086002E001202D49C8
:1012B000086001202149087004E0701C86B2032EEA
:1012C000FFF60CAF00BFCCB127480078A04201D197
:1012D000002412E024480078401EC2B20023414698
:1012E000384600F043F8204804700078401EC2B22F
:1012F00001234146384600F039F804E0681C85B205
:10130000052DFFF6E9AE10E01748007868B11648E1
:101310000078401EC2B200234146384600F026F84D
:10132000002011490870054908702046BDE8F08189
:1013300030010020FB010020AE0400200402002048
:1013400020C2BCC8EBB3C9B9A6200000F001002040
:10135000FA010020202020202020202020202020F2
:101360002000000008000020070200202DE9FC47B3
:1013700004460D4616469946032096FBF0F087B2C8
:10138000032096FBF0F100FB11601FFA80F8102E8D
:1013900001DDBDE8FC87B9F1000F25D048F23040EF
:1013A000C7EB071C05EB8C0C0CF13A0C1FFA8CF305
:1013B00008EB880C04EB4C1C0CF19E0C1FFA8CF211
:1013C000C7EB071C05EB8C0C0CF1020C1FFA8CF11F
:1013D00008EB880C04EB4C1C0CF1020C00901FFA7B
:1013E0008CF000F05DF93AE04FF6FF70C7EB071C98
:1013F00005EB8C0C0CF13A0C1FFA8CF308EB880C03
:1014000004EB4C1C0CF19E0C1FFA8CF2C7EB071C72
:1014100005EB8C0C0CF1020C1FFA8CF108EB880C1C
:1014200004EB4C1C0CF1020C00901FFA8CF000F045
:1014300037F90C4850F82600102105F114023C231E
:1014400003FB0722CDE9001091B208EB880204EB00
:1014500042123C3290B21E23302201F019FC00BF30
:1014600097E700008C01002070B50446002609486B
:101470000588408845430021084601F0C1FA01F083
:1014800071FC00BF02E004480480761CAE42FAD32F
:1014900070BD0000A00400200010006C10B50446D0
:1014A000F4B900201F498871F02008804FF4A07023
:1014B00048800846808845F2105188422ED14FF46A
:1014C0003050184908814FF4285048814FF42C506F
:1014D00088814FF4F07008804FF4487048801DE018
:1014E0000120104988714FF4A0700880F0204880D6
:1014F0000846808845F2105188420FD14FF4305091
:10150000084908814FF4285048814FF42C508881B5
:101510004FF4487008804FF4F0704880032001F0C9
:10152000D3F910BDA00400202DE9FF4F84B08146FF
:101530008A460020039002900698A0EB09050798C0
:10154000A0EB0A06CDF80490CDF800A0002D01DD37
:10155000012705E00DB9002702E04FF0FF376D428B
:10156000002E02DD4FF0010806E016B94FF000082A
:1015700002E04FF0FF387642B54201DD2C4600E034
:1015800034464FF0000B21E0009A91B2019A90B2DC
:1015900000F022F803982844039002983044029007
:1015A0000398A04205DD0398001B0390019838447E
:1015B00001900298A04205DD0298001B029000985D
:1015C000404400900BF101001FFA80FB601C834532
:1015D000DADD08B0BDE8F08F30B504460D46294687
:1015E000204601F00DFA01F0BDFB024800880249D7
:1015F000088030BD2A0100200010006CF0B50446C0
:101600000D4616461F462B46324629462046FFF712
:101610008BFF3B46224629462046FFF785FF3B4687
:10162000324639462046FFF77FFF3B463246294681
:101630003046FFF779FFF0BD30B504460D46164839
:10164000808845F2105188421FD11349488901F022
:101650007DFB201201F06EFB0F494989491C88B2BD
:1016600001F074FBE0B201F065FB0B49888901F0E1
:101670006DFB281201F05EFB07498989491C88B27D
:1016800001F064FBE8B201F055FB0348008903490F
:101690000880881C028030BDA0040020FE0F006C72
:1016A0002DE9F04F05460E4617469846DDF824A072
:1016B0004FF0000B781B401C1FFA80FB344613E0F0
:1016C0002146284601F09CF901F04CFB4FF000093F
:1016D00006E00748A0F800A009F101001FFA80F910
:1016E000D945F6DB601C84B24445E9DDBDE8F08FE6
:1016F0000010006C1CB5FE48006840F07800FC4902
:1017000008600846006840F002000860084600686B
:1017100040F001000860F6480830006840F0010021
:10172000F349083108600120032100230222CDE99A
:1017300000104CF23371EF48FFF70BF90120032141
:1017400000230222CDE900104FF68071EA48FFF72E
:1017500000F90120032100230222CDE900101146E7
:10176000E648FFF7F6F80120032100230222CDE925
:1017700000100103E148FFF7ECF8012003210023EA
:101780000246CDE900104102DD48FFF7E2F80120F2
:10179000DC4908600C220021D648FFF73BF80C22F8
:1017A0000121D448FFF736F80C220421D148FFF775
:1017B00031F80C220521CF48FFF72CF80C22082124
:1017C000CC48FFF727F80C220921CA48FFF722F876
:1017D0000C220A21C748FFF71DF80C220E21C5482C
:1017E000FFF718F80C220F21C248FFF713F80C225C
:1017F0000721C148FFF70EF80C220821BE48FFF769
:1018000009F80C220921BC48FFF704F80C220A2130
:10181000B948FEF7FFFF0C220B21B748FEF7FAFF8D
:101820000C221146B448FEF7F5FF0C220D21B248F8
:10183000FEF7F0FF0C220E21AF48FEF7EBFF0C2263
:101840000F21AD48FEF7E6FF0C220121AB48FEF761
:10185000E1FF0C221146A948FEF7DCFF00204FF003
:1018600020418861C861C1F81C010846806940F4C4
:10187000805088610846806940F48040886108464D
:10188000806940F0100088610846C069C861084658
:10189000C06940F00F00C8610846C06940F470504C
:1018A000C86199480068C1F81C010846D0F81C01BD
:1018B00040F00900C1F81C010846D0F81C0140F4B2
:1018C0000060C1F81C010846806940F00100886191
:1018D000322002F049FF4FF45A4001F037FA00F08D
:1018E000E9FF8A4988804FF45B4001F02FFA00F04D
:1018F000E1FF86498880084680884FF6FF7101EA3B
:101900000020824988804FF45C4001F01FFA00F00B
:10191000D1FF7E49898808437C49888008468088B1
:10192000B0F5004F02D145F210508880774880888A
:1019300045F2105188421CD17348006820F00F0016
:101940004FF02041C1F81C010846D0F81C0120F4DA
:101950007060C1F81C010846D0F81C0140F003007B
:10196000C1F81C010846D0F81C0140F40070C1F811
:101970001C016648808845F2105188427ED155216D
:101980004FF4704001F0F8F9AA214FF2010001F084
:10199000F3F952214FF2020001F0EEF908214FF263
:1019A000030001F0E9F901214FF2040001F0E4F92C
:1019B0000D214FF4304001F0DFF90D214BF2010011
:1019C00001F0DAF90D214BF2020001F0D5F93421D2
:1019D0004FF4364001F0D0F934214BF2016001F0B0
:1019E000CBF934214BF2026001F0C6F90D214FF41E
:1019F000314001F0C1F90D214BF2011001F0BCF9A9
:101A00000D214BF2021001F0B7F934214FF43740A9
:101A100001F0B2F934214BF2017001F0ADF934213B
:101A20004BF2027001F0A8F900214FF4324001F0AE
:101A3000A3F900214BF2012001F09EF900214BF2A5
:101A4000022001F099F924214FF4384001F094F973
:101A500024214BF6010001F08FF924214BF60200FE
:101A600001F08AF901214FF43F4001F085F90F217F
:101A70004FF4334001F080F90F2100E0FEE34BF218
:101A8000013001F079F90F214BF2023001F074F9C5
:101A900034214FF4394001F06FF934214BF6011035
:101AA00001F06AF934214BF6021001F065F90821C2
:101AB0004FF4354001F060F908214BF2015001F07C
:101AC0005BF908214BF2025001F056F903214FF463
:101AD000424001F051F924214FF43A4001F04CF911
:101AE00024214BF6012001F047F9242110E00000E9
:101AF00030380240000C0240001002400018024042
:101B000000000240A40240421C0100A0A0040020EA
:101B10004BF6022001F030F900214FF43C4001F077
:101B20002BF978214BF6014001F026F900214BF604
:101B3000024001F021F900214FF43D4001F01CF971
:101B400078214BF6015001F017F900214BF60250B5
:101B500001F012F900214FF43E4001F00DF964212B
:101B60004BF6016001F008F900214FF4514001F0FB
:101B700003F933214DF2011001F0FEF800214DF27E
:101B8000021001F0F9F834214DF2031001F0F4F8DD
:101B900000214DF2041001F0EFF83A214DF205104A
:101BA00001F0EAF800214DF2061001F0E5F84A21B3
:101BB0004DF2071001F0E0F800214DF2081001F09D
:101BC000DBF85C214DF2091001F0D6F800214DF24E
:101BD0000A1001F0D1F881214DF20B1001F0CCF880
:101BE00000214DF20C1001F0C7F8A6214DF20D10A6
:101BF00001F0C2F800214DF20E1001F0BDF8E52110
:101C00004DF20F1001F0B8F801214DF2101001F063
:101C1000B3F813214DF2111001F0AEF801214DF28D
:101C2000121001F0A9F854214DF2131001F0A4F89C
:101C300001214DF2141001F09FF882214DF2151090
:101C400001F09AF801214DF2161001F095F8CA2121
:101C50004DF2171001F090F802214DF2181001F02A
:101C60008BF800214DF2191001F086F802214DF297
:101C70001A1001F081F801214DF21B1001F07CF8DF
:101C800002214DF21C1001F077F834214DF21D10A5
:101C900001F072F802214DF21E1001F06DF867217B
:101CA0004DF21F1001F068F802214DF2201001F0F2
:101CB00063F884214DF2211001F05EF802214DF20B
:101CC000221001F059F8A4214DF2231001F054F82C
:101CD00002214DF2241001F04FF8B7214DF22510EA
:101CE00001F04AF802214DF2261001F045F8CF210B
:101CF0004DF2271001F040F802214DF2281001F0BA
:101D00003BF8DE214DF2291001F036F802214DF2A8
:101D10002A1001F031F8F2214DF22B1001F02CF8CD
:101D200002214DF22C1001F027F8FE214DF22D106A
:101D300001F022F803214DF22E1001F01DF81021C0
:101D40004DF22F1001F018F803214DF2301001F080
:101D500013F833214DF2311001F00EF803214DF24A
:101D6000321001F009F86D214DF2331001F004F842
:101D700000214FF4524000F0FFFF33214DF20120CB
:101D800000F0FAFF00214DF2022000F0F5FF3421AF
:101D90004DF2032000F0F0FF00214DF2042000F08E
:101DA000EBFF3A214DF2052000F0E6FF00214DF255
:101DB000062000F0E1FF4A214DF2072000F0DCFF91
:101DC00000214DF2082000F0D7FF5C214DF20920E0
:101DD00000F0D2FF00214DF20A2000F0CDFF81215A
:101DE0004DF20B2000F0C8FF00214DF20C2000F056
:101DF000C3FFA6214DF20D2000F0BEFF00214DF2E1
:101E00000E2000F0B9FFE5214DF20F2000F0B4FFE5
:101E100001214DF2102000F0AFFF13214DF21120EF
:101E200000F0AAFF01214DF2122000F0A5FF54217D
:101E30004DF2132000F0A0FF01214DF2142000F01C
:101E40009BFF82214DF2152000F096FF01214DF2FB
:101E5000162000F091FFCA214DF2172000F08CFFF0
:101E600002214DF2182000F087FF00214DF21920C9
:101E700000F082FF02214DF21A2000F07DFF0121C7
:101E80004DF21B2000F078FF02214DF21C2000F0E3
:101E900073FF34214DF21D2000F06EFF02214DF240
:101EA0001E2000F069FF67214DF21F2000F064FF43
:101EB00002214DF2202000F05FFF84214DF221200D
:101EC00000F05AFF02214DF2222000F055FFA4211C
:101ED0004DF2232000F050FF02214DF2242000F0AB
:101EE0004BFFB7214DF2252000F046FF02214DF2B5
:101EF000262000F041FFCF214DF2272000F03CFFCB
:101F000002214DF2282000F037FFDE214DF229207A
:101F100000F032FF02214DF22A2000F02DFFF221C5
:101F20004DF22B2000F028FF02214DF22C2000F072
:101F300023FFFE214DF22D2000F01EFF03214DF264
:101F40002E2000F019FF10214DF22F2000F014FF79
:101F500003214DF2302000F00FFF33214DF23120EC
:101F600000F00AFF03214DF2322000F005FF6D2141
:101F70004DF2332000F000FF00214FF4534000F0F9
:101F8000FBFE33214DF2013000F0F6FE00214DF250
:101F9000023000F0F1FE34214DF2033000F0ECFE8F
:101FA00000214DF2043000F0E7FE3A214DF20530F9
:101FB00000F0E2FE00214DF2063000F0DDFE4A2185
:101FC0004DF2073000F0D8FE00214DF2083000F04D
:101FD000D3FE5C214DF2093000F0CEFE00214DF21F
:101FE0000A3000F0C9FE81214DF20B3000F0C4FE32
:101FF00000214DF20C3000F0BFFEA6214DF20D3055
:1020000000F0BAFE00214DF20E3000F0B5FEE521E1
:102010004DF20F3000F0B0FE01214DF2103000F013
:10202000ABFE13214DF2113000F0A6FE01214DF25E
:10203000123000F0A1FE54214DF2133000F09CFE4E
:1020400001214DF2143000F097FE82214DF215303F
:1020500000F092FE01214DF2163000F08DFECA21F3
:102060004DF2173000F088FE02214DF2183000F0DA
:1020700083FE00214DF2193000F07EFE02214DF268
:102080001A3000F079FE01214DF21B3000F074FE91
:1020900002214DF21C3000F06FFE34214DF21D3054
:1020A00000F06AFE02214DF21E3000F065FE67214D
:1020B0004DF21F3000F060FE02214DF2203000F0A2
:1020C0005BFE84214DF2213000F056FE02214DF2DC
:1020D000223000F051FEA4214DF2233000F04CFEDE
:1020E00002214DF2243000F047FEB7214DF2253099
:1020F00000F042FE02214DF2263000F03DFECF21DD
:102100004DF2273000F038FE02214DF2283000F069
:1021100033FEDE214DF2293000F02EFE02214DF279
:102120002A3000F029FEF2214DF22B3000F024FE7F
:1021300002214DF22C3000F01FFEFE214DF22D3019
:1021400000F01AFE03214DF22E3000F015FE102192
:102150004DF22F3000F010FE03214DF2303000F030
:102160000BFE33214DF2313000F006FE03214DF21B
:10217000323000F001FE6D214DF2333000F0FCFDF5
:1021800000214FF4544000F0F7FD33214DF201409F
:1021900000F0F2FD00214DF2024000F0EDFD34218F
:1021A0004DF2034000F0E8FD00214DF2044000F044
:1021B000E3FD3A214DF2054000F0DEFD00214DF235
:1021C000064000F0D9FD4A214DF2074000F0D4FD51
:1021D00000214DF2084000F0CFFD5C214DF2094096
:1021E00000F0CAFD00214DF20A4000F0C5FD81213A
:1021F0004DF20B4000F0C0FD00214DF20C4000F00C
:10220000BBFDA6214DF20D4000F0B6FD00214DF2C0
:102210000E4000F0B1FDE5214DF20F4000F0ACFDA5
:1022200001214DF2104000F0A7FD13214DF21140A5
:1022300000F0A2FD01214DF2124000F09DFD54215D
:102240004DF2134000F098FD01214DF2144000F0D2
:1022500093FD82214DF2154000F08EFD01214DF2DB
:10226000164000F089FDCA214DF2174000F084FDB0
:1022700002214DF2184000F07FFD00E011E3002143
:102280004DF2194000F078FD02214DF21A4000F0A5
:1022900073FD01214DF21B4000F06EFD02214DF255
:1022A0001C4000F069FD34214DF21D4000F064FD3A
:1022B00002214DF21E4000F05FFD67214DF21F40EC
:1022C00000F05AFD02214DF2204000F055FD84211E
:1022D0004DF2214000F050FD02214DF2224000F06D
:1022E0004BFDA4214DF2234000F046FD02214DF2AA
:1022F000244000F041FDB7214DF2254000F03CFDA7
:1023000002214DF2264000F037FDCF214DF227404B
:1023100000F032FD02214DF2284000F02DFDDE21BB
:102320004DF2294000F028FD02214DF22A4000F034
:1023300023FDF2214DF22B4000F01EFD02214DF253
:102340002C4000F019FDFE214DF22D4000F014FD4F
:1023500003214DF22E4000F00FFD10214DF22F40D1
:1023600000F00AFD03214DF2304000F005FD33215D
:102370004DF2314000F000FD03214DF2324000F0FB
:10238000FBFC6D214DF2334000F0F6FC00214FF4D0
:10239000554000F0F1FC33214DF2015000F0ECFC0F
:1023A00000214DF2025000F0E7FC34214DF20350C1
:1023B00000F0E2FC00214DF2045000F0DDFC3A2177
:1023C0004DF2055000F0D8FC00214DF2065000F00F
:1023D000D3FC4A214DF2075000F0CEFC00214DF213
:1023E000085000F0C9FC5C214DF2095000F0C4FC1B
:1023F00000214DF20A5000F0BFFC81214DF20B503C
:1024000000F0BAFC00214DF20C5000F0B5FCA62102
:102410004DF20D5000F0B0FC00214DF20E5000F0D6
:10242000ABFCE5214DF20F5000F0A6FC01214DF26E
:10243000105000F0A1FC13214DF2115000F09CFC53
:1024400001214DF2125000F097FC54214DF213502F
:1024500000F092FC01214DF2145000F08DFC82211D
:102460004DF2155000F088FC01214DF2165000F09D
:1024700083FCCA214DF2175000F07EFC02214DF280
:10248000185000F079FC00214DF2195000F074FC56
:1024900002214DF21A5000F06FFC01214DF21B5049
:1024A00000F06AFC02214DF21C5000F065FC342162
:1024B0004DF21D5000F060FC02214DF21E5000F064
:1024C0005BFC67214DF21F5000F056FC02214DF2DB
:1024D000205000F051FC84214DF2215000F04CFCC2
:1024E00002214DF2225000F047FCA4214DF223506E
:1024F00000F042FC02214DF2245000F03DFCB721D7
:102500004DF2255000F038FC02214DF2265000F02B
:1025100033FCCF214DF2275000F02EFC02214DF26A
:10252000285000F029FCDE214DF2295000F024FC57
:1025300002214DF22A5000F01FFCF2214DF22B50E7
:1025400000F01AFC02214DF22C5000F015FCFE2187
:102550004DF22D5000F010FC03214DF22E5000F0F2
:102560000BFC10214DF22F5000F006FC03214DF220
:10257000305000F001FC33214DF2315000F0FCFBF3
:1025800003214DF2325000F0F7FB6D214DF2335034
:1025900000F0F2FB00214FF4564000F0EDFB332138
:1025A0004DF2016000F0E8FB00214DF2026000F006
:1025B000E3FB34214DF2036000F0DEFB00214DF21D
:1025C000046000F0D9FB3A214DF2056000F0D4FB25
:1025D00000214DF2066000F0CFFB4A214DF207606A
:1025E00000F0CAFB00214DF2086000F0C5FB5C2141
:1025F0004DF2096000F0C0FB00214DF20A6000F0CE
:10260000BBFB81214DF20B6000F0B6FB00214DF2C7
:102610000C6000F0B1FBA6214DF20D6000F0ACFBA8
:1026200000214DF20E6000F0A7FBE5214DF20F6096
:1026300000F0A2FB01214DF2106000F09DFB132180
:102640004DF2116000F098FB01214DF2126000F094
:1026500093FB54214DF2136000F08EFB01214DF2EB
:10266000146000F089FB82214DF2156000F084FBBC
:1026700001214DF2166000F07FFBCA214DF2176078
:1026800000F07AFB02214DF2186000F075FB00218A
:102690004DF2196000F070FB02214DF21A6000F05B
:1026A0006BFB01214DF21B6000F066FB02214DF235
:1026B0001C6000F061FB34214DF21D6000F05CFBFA
:1026C00002214DF21E6000F057FB67214DF21F60A2
:1026D00000F052FB02214DF2206000F04DFB8421FE
:1026E0004DF2216000F048FB02214DF2226000F023
:1026F00043FBA4214DF2236000F03EFB02214DF28A
:10270000246000F039FBB7214DF2256000F034FB66
:1027100002214DF2266000F02FFBCF214DF2276001
:1027200000F02AFB02214DF2286000F025FBDE219B
:102730004DF2296000F020FB02214DF22A6000F0EA
:102740001BFBF2214DF22B6000F016FB02214DF233
:102750002C6000F011FBFE214DF22D6000F00CFB0F
:1027600003214DF22E6000F007FB10214DF22F6087
:1027700000F002FB03214DF2306000F0FDFA33213E
:102780004DF2316000F0F8FA03214DF2326000F0B2
:10279000F3FA6D214DF2336000F0EEFA55214FF45B
:1027A000704000F0E9FAAA214FF2010000F0E4FACB
:1027B00052214FF2020000F0DFFA08214FF203002D
:1027C00000F0DAFA00214FF2040000F0D5FACC2133
:1027D0004FF4314000F0D0FA00214BF2011000F02C
:1027E000CBFA05214FF4364000F0C6FA70214FF4C1
:1027F000374000F0C1FA70214BF2017000F0BCFAD2
:1028000001214FF4384000F0B7FA03214BF60100E4
:1028100000F0B2FA03214BF6020000F0ADFA0321FA
:102820004BF6030000F0A8FA02214FF43C4000F000
:10283000A3FA00214BF6014000F09EFA00214BF66E
:10284000024000F099FAD0214FF4494000F094FA88
:1028500002214CF6011000F08FFA50214CF60210C4
:1028600000F08AFA50214CF6031000F085FA50214E
:102870004CF6041000F080FA00214FF4545000F0A0
:102880007BFA55214FF4685000F076FA4FF48850E7
:1028900000F05CFA782001F083FF4FF4245000F040
:1028A00055FA0020FEF7FAFD4FF6FF70FEF7DCFD4B
:1028B0001CBD000008B5034800880090BDF800006A
:1028C00008BD00000010006C70B50546002400260D
:1028D0004A48808845F2105188427CD1082D1CD28C
:1028E000DFE805F00406090C0F12151800BF14E00C
:1028F00044F0800411E044F040040EE044F0C004D1
:102900000BE044F0200408E044F0600405E044F0EB
:10291000A00402E044F0E00400BF00BF3748808814
:1029200045F21051884201D14FF4585633488088FF
:1029300045F21051884201D044F008042146304647
:1029400000F01AFA2D48808845F21051884253D180
:102950002A49488900F0FAF9002000F0EBF92749EC
:102960004989491C88B200F0F1F9002000F0E2F931
:1029700022494989891C88B200F0E8F91F49098871
:10298000491EC1F30F2000F0D5F91C494989C91C23
:1029900088B200F0DBF919490978491EC8B200F085
:1029A000C9F91649888900F0D1F9002000F0C2F970
:1029B00012498989491C88B200F0C8F9002000F04A
:1029C000B9F90E498989891C88B200F0BFF90B4911
:1029D0004988491E00E00FE0C1F30F2000F0AAF97A
:1029E00006498989C91C88B200F0B0F90349897881
:1029F000491EC8B200F09EF970BD0000A00400207E
:102A000010B502460C461348808845F210518842A2
:102A10001FD11049488900F099F9101200F08AF985
:102A20000C494989491C88B200F090F9D0B200F0F5
:102A300081F90849888900F089F9201200F07AF9B3
:102A400004498989491C88B200F080F9E0B200F09D
:102A500071F910BDA00400202DE9F84F80460E4604
:102A600017461C46B3462046E31704EB5373DB10AE
:102A700021464FEAE47C04EB5C7C4FEAEC0CA4EBCF
:102A8000CC0CBCF1000F02D04FF0010C01E04FF074
:102A9000000C6344224604EBD27C4FEA6C0C03FB2F
:102AA0000CF3DBB20093A7F12000C7B2002556E07B
:102AB0000C2C07D107EB47002B4901EB800010F8E5
:102AC000059013E0102C05D1284800EB071010F8F2
:102AD00005900BE0182C07D107EBC700244901EB48
:102AE000800010F8059001E0BDE8F88F4FF0000A73
:102AF0002FE009F0800030B11E4802883146404680
:102B0000FEF79AFD07E00A9828B91B48028831466B
:102B10004046FEF791FD4FEA49604FEA1069701C8C
:102B200086B216484088B04200DCDDE7A6EB0B0019
:102B3000A0420AD15E4608F101001FFA80F80F4852
:102B40000088404500DCCFE706E00AF1010000F014
:102B5000FF0ABAF1080FCCDB00BF681CC5B20098B1
:102B60008542A5DB00BFBFE72A5100089E5500083B
:102B70008E5B00082A0100202C010020A004002008
:102B8000F8B505460C46164610270D480088A842A1
:102B900002DA0025E01984B209484088A04206DA2A
:102BA0000020054604464FF6FF70FEF75DFC00204E
:102BB00000903278102321462846FFF74DFFF8BDDC
:102BC000A00400202DE9F04F8AB006460F4690463B
:102BD0004FF0000900BF00BF98F800B098F801005E
:102BE00001900198A138ABF1A101C1EB011202EBF8
:102BF000411100EB41004FEA401A23485044009035
:102C0000002406E00AEB04001F49085C02A90855ED
:102C1000641C202CF6DB002430E002A810F814908D
:102C20004FF6FF7000EA09296000401C02A9085C09
:102C300040EA090900251BE0C5F10F0049FA00F040
:102C400000F0010048B10020104908803A1991B203
:102C5000721990B2FEF7C0FC09E04FF6FF700B4905
:102C600008803A1991B2721990B2FEF7B5FC6D1C4A
:102C7000102DE1DB002005490880641C102CCCDB02
:102C80000AB0BDE8F08F0000EA6800082A010020C1
:102C90002DE9F84704460D4690469946DDE9096757
:102CA00004F0FF0A08EB04001FFA80F809EB0500A6
:102CB0001FFA80F916E0444502DB5446A81985B294
:102CC0004D4500DB14E0002000903A783346294659
:102CD0002046FFF7C1FE304606EBD07104EB6101E0
:102CE0008CB27F1C38787E2802DC38782028E2DA23
:102CF00000BFBDE8F88770B505460E46144615E0DE
:102D00002078A12809DD224631462846FFF75AFFE0
:102D1000A41C05F1100085B208E022463146284681
:102D2000FFF72EFF641C05F1080085B2207800280B
:102D3000E6D170BD01B5BDF800000090BDF80000FF
:102D40000149088008BD00000010006C01B5BDF805
:102D500000000090BDF800000149088008BD000097
:102D6000FE0F006C0248008902490880704700008D
:102D7000A0040020FE0F006C024A1080921C1180FB
:102D800070470000FE0F006C1CB50121202000F0F0
:102D9000DFFAFF20009001208DF8040000208DF85C
:102DA000060003208DF8050000208DF80700694615
:102DB0001148FDF74FFD01210F48FDF739FE0221B3
:102DC0000D48FDF735FE04210B48FDF731FE0821C3
:102DD0000948FDF72DFE10210748FDF729FE2021A7
:102DE0000548FDF725FE40210348FDF721FE80211F
:102DF0000148FDF71DFE1CBD0014024010B54FF642
:102E0000FF70FEF731FB1F2002490880C0020880D6
:102E100010BD00002A0100202DE9FC4705460C46A4
:102E200091460020334908804FF6FF70009004F16E
:102E3000960083B205F1F00082B221462846FEF7E3
:102E40002FFC04F22B1083B205F2DF1082B2214670
:102E50002846FEF7D3FB04F22B118BB205F5A071C7
:102E60008AB2A03988B22146FEF7C8FB04F1F0000F
:102E700083B205F2DF1082B204F13C0081B2284631
:102E8000FEF7BCFB04F1B40083B205F2DF1082B29E
:102E900004F1780081B22846FEF7B0FB0020154906
:102EA0000880002622E0032096FBF0F104F11400D4
:102EB0003C2202FB010087B2032096FBF0F100FBED
:102EC000116000EB800005EB40103C301FFA80F8E9
:102ED000094850F8260010211E233022CDE90010A9
:102EE00039464046FFF7D4FE701C86B20F2EDADB5F
:102EF000BDE8FC872A0100208C01002010B50446A3
:102F0000412C25D108210846FDF79EFB3D211120CB
:102F100001F0F4F98621172001F0F0F97F21262035
:102F200001F0ECF91E212D2001F0E8F900212C2000
:102F300001F0E4F98D212A2001F0E0F93E212B2057
:102F400001F0DCF9012001F0E1FB00F051F801E0B3
:102F5000FF2010BD0020FCE770B5002100230F22E8
:102F6000C4781CB3174C246804F4E064C4F5E0642E
:102F7000C4F30721C1F10404E3B20A4144789C4040
:102F8000E1B28478144021430C07210E0E4C0578E1
:102F90006155047804F01F050124AC4005786D11DB
:102FA000AD0005F1E025C5F8004109E0047804F022
:102FB0001F050124AC40054D0678761145F82640E2
:102FC00070BD00000CED00E000E400E080E100E0F6
:102FD00002490143024A1160704700000000FA05EF
:102FE0000CED00E010B503211420FDF72DFB10BD02
:102FF00010B5142000F042FB044604F0030018B999
:103000000321142000F088FC10BDF0B587B0054600
:10301000002708210846FDF717FB00210D2001F0CD
:103020006DF980210E20FDF70FFB93208DF8040031
:1030300020208DF8050006A801AB022201A900900E
:103040000C2000F01AF8064686B9002407E001A813
:10305000005D285501A8005D4740601CC4B2042CE7
:10306000F5DB01A8005DB84200D0FE2680210E20CD
:1030700000F052FC304607B0F0BD2DE9FE4F064689
:10308000884691469A46DDF830B0FE200290002036
:10309000019000900C2E06D00E2E09D11220019026
:1030A0001020009005E0772001903020009000E093
:1030B00000BF00BF019840F08001022001F01EF91E
:1030C00080210420FDF7C0FA0021012001F016F94B
:1030D00080210A2000F020FC002505E018F80510EA
:1030E000092001F00BF96D1C4D45F7D33146012045
:1030F00001F004F90C2E03D180210D2000F00CFC0E
:103100004FF4FA6500BF042000F0B8FA04466D1EC3
:1031100035B104F0010018B9009820400028F2D021
:1031200080210D20FDF790FA95B3062000F0A6FA55
:1031300000F01B0068BB002002900198204000F0C6
:10314000010008B1FF2002900C2E24D10A2000F0CB
:1031500095FA04460C2000F091FA00F007072FB111
:10316000601E07EBC000CBF8000002E0E000CBF8E7
:10317000000004B90124122C00DD1224002505E012
:10318000092000F07BFA0AF805006D1CA542F7D370
:1031900001E0FE20029080210C2000F0BDFB002108
:1031A000012001F0ABF80298BDE8FE8F1CB50121AB
:1031B000042000F0CDF84020009001208DF804009C
:1031C00000208DF806008DF805008DF8070069468F
:1031D0002A48FDF73FFB0121084600F0B9F8082016
:1031E000009000208DF804008DF806008DF8050091
:1031F0008DF8070069462248FDF72CFB012108469F
:1032000000F0A6F84020009001208DF80400002076
:103210008DF806008DF805008DF8070069461848FE
:10322000FDF718FB0121202000F092F84FF4006018
:10323000009001208DF8040000208DF806008DF824
:1032400005008DF8070069460E48FDF703FB0121D4
:10325000202000F07DF84FF48050009001208DF880
:10326000040000208DF806008DF805008DF8070099
:1032700069460448FDF7EEFA1CBD00000008024054
:10328000000002400014024070B588B005460C46AC
:1032900008210846FDF7D8F907210D2001F02EF886
:1032A0000321142000F038FB8DF8085007A802AB6A
:1032B000012202A900900C20FFF7DFFE06464EB95E
:1032C0000798102806D19DF8080020709DF8090085
:1032D000607000E0FE26304608B070BD10B5402199
:1032E0001A48FDF7A5FB012001F010FA402117480C
:1032F000FDF72DFB012001F009FA40211348FDF7ED
:1033000097FB0A2001F002FA022000F0B7F90F2122
:10331000012000F0F3FF3D21112000F0EFFF1E21FE
:103320002D2000F0EBFF00212C2000F0E7FF8D2185
:103330002A2000F0E3FF3E212B2000F0DFFF402198
:10334000152000F0DBFF002010BD00000008024047
:1033500029B1064A12680243044B1A6004E0034A8A
:1033600012688243014B1A607047000030380240F7
:1033700029B1064A12680243044B1A6004E0034A6A
:1033800012688243014B1A607047000040380240C7
:1033900029B1064A12680243044B1A6004E0034A4A
:1033A00012688243014B1A607047000020380240C7
:1033B00029B1064A12680243044B1A6004E0034A2A
:1033C00012688243014B1A60704700004438024083
:1033D000F0B5002100220024022500260223324FEE
:1033E0003F6807F00C0121B1042905D0082937D125
:1033F00005E02E4F076036E02D4F076033E02A4F7F
:103400003F1F3F68C7F38056274F3F1F3F6807F0B5
:103410003F036EB1264FB7FBF3F7DFF88CC0ACF17A
:10342000040CDCF800C0CCF3881C07FB0CF40CE0A7
:103430001E4FB7FBF3F7DFF870C0ACF1040CDCF8FB
:1034400000C0CCF3881C07FB0CF4174F3F1F3F68EC
:10345000C7F301477F1C7D00B4FBF5F7076002E06E
:10346000124F076000BF00BF0F4F3F6807F0F00129
:103470000909104F7A5C0768D74047600A4F3F68D8
:1034800007F4E051890A0B4F7A5C4768D7408760A0
:10349000054F3F6807F46041490B064F7A5C476867
:1034A000D740C760F0BD0000083802400024F40097
:1034B00040787D016501002010B500F055F81849ED
:1034C00008700846007830B900F0A2FF00F0FCFE5A
:1034D00000F0A8FF22E01248007801280BD0104825
:1034E0000078022807D00E480078032803D00C4843
:1034F0000078042812D100F05FFF0AA24FF4967101
:10350000B420FFF7F8FB00F0DFFE642001F02CF997
:1035100009A24FF49671B420FFF7EDFB10BD000037
:103520000000002020202020C3DCC2EBD5FDC8B75E
:103530002020202020000000202020C7EBCAE4C863
:10354000EBC3DCC2EB2020202020000010B5FFF7E9
:103550002DFEFFF7C3FEFFF745FDFFF749FD4120B4
:10356000FFF7CCFC10BD000010B53E495220FFF71C
:103570008BFE002873D13C48FFF747FD00286CD133
:1035800000243948007839490978884213D13648EF
:1035900040783649497888420DD13348807833499C
:1035A0008978884207D13048C0783049C978884244
:1035B00001D1042454E02C4800782D490978884230
:1035C00013D1294840782A49497888420DD12648A4
:1035D000807827498978884207D12348C0782449D0
:1035E000C978884201D101243AE01F480078214976
:1035F0000978884213D11C4840781E49497888428E
:103600000DD1194880781B498978884207D116481E
:10361000C0781849C978884201D1022420E01248B4
:10362000007815490978884213D10F48407812492B
:10363000497888420DD10C4880780F4989788842B2
:1036400007D10948C0780C49C978884201D10324C0
:1036500006E0002404E002E0FFE7052400E0062481
:10366000204610BD1C020020180200202C02002061
:103670002002002024020020280200202DE9F04131
:10368000064600254FF480512648FDF760F97E205C
:1036900000EA460040F08007082419E04FF400617A
:1036A0002048FDF754F907F0800020B140211E4862
:1036B000FDF7BEF903E040211B48FDF748F94FF440
:1036C00000611848FDF7B4F97806070E601EC4B211
:1036D000002CE3DC082415E04FF400611148FDF7ED
:1036E00036F96806050E4FF400610E48FDF7A0F9A3
:1036F00008210D48FDF719F9012801D145F0010510
:10370000601EC4B2002CE7DC4FF480510548FDF781
:103710008FF94FF400610348FDF78AF92846BDE8A8
:10372000F0810000001402400000024010B50422A5
:1037300091020A4800F01EFD0422D102084800F060
:1037400019FD04224FF44051064800F013FD0422F5
:103750001103054800F00EFD10BD000020020020FE
:1037600024020020280200202C02002000B587B08F
:1037700001210220FFF7ECFD0121C803FFF7F8FD4E
:103780003820059002208DF8180000208DF81A00CE
:1037900003208DF8190001208DF81B0005A922488F
:1037A000FDF758F8062203211F48FDF79BF8062273
:1037B00004211D48FDF796F8062205211A48FDF759
:1037C00091F80121C803FFF7E3FD00214FF4004009
:1037D000FFF7DEFD0020ADF800004FF48270ADF879
:1037E00002000020ADF804000220ADF80600012020
:1037F000ADF808004002ADF80A003820ADF80C0022
:103800000020ADF80E000720ADF81000694607480B
:1038100000F044F80121054800F026F8FF2000F0F0
:1038200007F807B000BD000000040240003C004063
:1038300010B5044600BF02210A4800F021F8002814
:10384000F9D02146074800F027F800BF01210548BC
:1038500000F016F80028F9D0024800F01AF8C0B2BB
:1038600010BD0000003C004021B1028842F040023F
:10387000028004E002884FF6BF731A40028070474E
:103880000246002013890B400BB1012000E000200C
:1038900070470146888970478181704710B50022C2
:1038A000028802F441520B884C8823438C882343BE
:1038B000CC8823430C8923434C8923438C8923439D
:1038C000CC8923431A430280838B4FF2FF74234039
:1038D00083830B8A038210BD30B500228B071C0F37
:1038E0000F2303FA04F20B4B8C1053F8243093434C
:1038F000084C8D1044F8253023468C1053F82430A2
:103900008C07240F00FA04F42343024C8D1044F872
:10391000253030BD0838014070B505460C460026FC
:103920002846FFF7ABFE064646EA0401284600F0AB
:10393000E5FC70BD1FB54FF4C060FFF749FB1C20CC
:103940008DF8000000208DF8010001208DF80200A4
:103950008DF803006846FFF7FFFA01210846FFF7DC
:1039600007FD4FF4C870029048F6A040ADF804007F
:103970000020ADF80C00ADF8060001A94FF0804022
:1039800000F046F90121880700F00CF901218807B1
:1039900000F014F901221146900700F02FF90021E0
:1039A0004FF0804000F00DF91FBD000010B501215F
:1039B000880700F012F9002877D00121880700F06D
:1039C000FDF865480068012806D164A202214FF481
:1039D000BE70FFF790F909E05F480068022805D142
:1039E00061A202214FF4BE70FFF785F961480078AB
:1039F00005285ADB01216048FCF7A0FF08B9012027
:103A000000E000200446224601215B48FDF712F841
:103A100002215948FCF792FF08B9012000E000207C
:103A20000446224602215448FDF704F80421524876
:103A3000FCF784FF08B9012000E00020044622467C
:103A400004214D48FCF7F6FF08214B48FCF776FFB0
:103A500008B9012000E0002004462246082146481B
:103A6000FCF7E8FF10214448FCF768FF08B9012083
:103A700000E000200446224610213F48FCF7DAFF10
:103A800020213D48FCF75AFF08B9012000E0002042
:103A90000446224620213848FCF7CCFF4021364816
:103AA000FCF74CFF10B9012001E054E0002004466F
:103AB000224640213048FCF7BDFF80212E48FCF70C
:103AC0003DFF08B9012000E0002004462246802185
:103AD0002948FCF7AFFF29480078401C27490870A7
:103AE0002748006830B90120254908603121254860
:103AF00000F0F9FA214800780A282CDD00201F493F
:103B000008701C4908701E49086001211A48FCF71A
:103B10008FFF02211848FCF78BFF04211648FCF7A1
:103B200087FF08211448FCF783FF10211248FCF797
:103B30007FFF20211048FCF77BFF40210E48FCF757
:103B400077FF80210C48FCF773FF0FA24FF4C87178
:103B50006420FFF7D0F810BD24010020CDF8C2E7A3
:103B6000CEB4C1ACBDD30000CDF8C2E7D2D1C1AC58
:103B7000BDD30000FC010020001402400C02002014
:103B8000140200200050004020202020202020206F
:103B9000202020202020200010B50121880700F0DF
:103BA0001CF810BD21B1028842F08002028004E0BE
:103BB00002884FF67F731A4002807047CA43028220
:103BC000704721B1028842F00102028004E00288BD
:103BD0004FF6FE731A400280704730B5024600204F
:103BE00000230024158A05EA0103958905EA0104EA
:103BF00013B10CB1012000E0002030BD1AB183895F
:103C00000B43838102E083898B43838170470000EB
:103C100000220288184B98420ED0184B98420BD0C5
:103C2000B0F1804F08D0164B984205D0154B984202
:103C300002D0154B984204D14FF68F731A404B882F
:103C40001A43124B984207D0114B984204D04FF6BA
:103C5000FF431A400B891A4302804B68C3620B88EA
:103C60000385054B984202D0044B984201D18B7AD0
:103C70000386012383827047000001400004014055
:103C80000004004000080040000C0040001000400C
:103C90000014004010B51148808845F21051884248
:103CA0001AD1FCF7CDFE10B90D480E4948600D48F9
:103CB00090F8300040F080000A4981F83000084652
:103CC00090F830000549897901F001010843054960
:103CD00081F83000002010BD0120FCE7A004002086
:103CE000950B00083001002000B587B00020334953
:103CF0004872486008723248086001210420FFF7CA
:103D000027FB01218804FFF733FB02208DF8180000
:103D100000208DF81A0001208DF81B0000208DF87E
:103D200019004FF40060059005A92648FCF792FDA4
:103D30004FF48060059005A92248FCF78BFD07220F
:103D40000A212048FCF7CEFD07220B211D48FCF775
:103D5000C9FD4FF4E13001900020ADF80800ADF846
:103D60000A00ADF80C00ADF810000C20ADF80E0004
:103D700001A9154800F048F90121134800F0E9F8BD
:103D8000012240F22551104800F019F94FF4A060CB
:103D9000FFF71EF927208DF8000000208DF80100A4
:103DA0008DF8020001208DF803006846FFF7D4F873
:103DB0000121054800F0CDF807B000BD88040020BF
:103DC00030020020000802400048004010B588B0D2
:103DD000044600202F494872486008722E48086047
:103DE00001210C20FFF7B4FA01210805FFF7C0FA02
:103DF00002208DF81C0000208DF81E0001208DF897
:103E00001F0000208DF81D000420069006A92348FD
:103E1000FCF720FD4FF48050069006A92048FCF7DF
:103E200019FD082202211D48FCF75CFD08220C2127
:103E30001B48FCF757FD02940020ADF80C00ADF8CC
:103E40000E00ADF81000ADF814000C20ADF8120013
:103E500002A9144800F0D8F80121124800F079F8BE
:103E6000012240F225510F4800F0A9F835208DF8C5
:103E7000040000208DF8050001208DF806008DF863
:103E8000070001A8FFF768F80021064800F061F874
:103E900008B010BD940400205C030020000C024018
:103EA000000802400050004010B540F2255118486B
:103EB00000F05BF8F8B140F22551154800F03AF8EF
:103EC000134800F00BF9C4B2312C09D111A2022120
:103ED0004FF4BE70FEF70FFF01201149086016E095
:103EE000322C09D10FA202214FF4BE70FEF703FF5E
:103EF00002200B4908600AE0332C03D101200C4951
:103F0000086004E0342C02D102200949086010BD89
:103F100000500040CDF8C2E7CEB4C1ACBDD3000024
:103F200024010020CDF8C2E7D2D1C1ACBDD300003E
:103F30001000002010B50022002340F66A14A142B0
:103F400000D100BF0A1201249440A3B2DC430480D4
:103F500010BD21B1828942F40052828104E082893D
:103F60004DF6FF731A408281704770B502460024F7
:103F700000230025002040F66A16B14200D100BFA0
:103F8000C1F3421501F01F03012606FA03F3012DC8
:103F900002D19689334006E0022D02D1168A3340C1
:103FA00001E0968A33400C12012606FA04F41688C2
:103FB000344013B10CB1012000E0002070BDF0B519
:103FC0000346002400260025002040F66A17B94267
:103FD00000D100BF1846C1F3421401F01F060127AB
:103FE00007FA06F5012C01D10C3004E0022C01D1B6
:103FF000103000E014301AB107682F43076002E068
:104000000768AF430760F0BD2DE9FF4705460E4640
:104010000024A14600BFA046B08900B100BF2C8A91
:1040200024F44054F08804432C82AC8941F20C60A3
:104030008443B08831890843718908430443AC81C3
:10404000AC8A24F44074B0890443AC826846FFF71C
:10405000BFF92048854202D01F48854202D1DDF8D1
:104060000C9001E0DDF80890A88900F4004040B110
:1040700009EBC90000EB091031684900B0FBF1F70A
:1040800007E009EBC90000EB091031688900B0FBBB
:10409000F1F76420B7FBF0F004012009642101FB73
:1040A0001078A88900F4004040B1322000EBC8002D
:1040B000B0FBF1F000F00700044308E0322000EB11
:1040C00008106421B0FBF1F000F00F0004432C81D4
:1040D000BDE8FF87001001400014014001468888B8
:1040E000C0F308007047C1F30802828070470000E7
:1040F00010B50446240300F087F800F07BF8402157
:104100000B48FCF724FC2020FFF792FBC4F3074088
:10411000FFF78EFBC4F30720FFF78AFBE0B2FFF73F
:1041200087FB40210248FCF783FC00F063F810BDD8
:10413000000402401CB501210220FFF709F94020CC
:10414000009001208DF8040000208DF80600032067
:104150008DF8050001208DF8070069460448FCF73A
:1041600079FB40210248FCF763FCFFF7FFFA1CBD16
:10417000000402402DE9F04106460C461746402156
:104180001048FCF7E4FB0320FFF752FBC4F30740A1
:10419000FFF74EFBC4F30720FFF74AFBE0B2FFF73F
:1041A00047FB002505E0FF20FFF742FB7055681C28
:1041B00085B2BD42F7DB40210248FCF739FCBDE87F
:1041C000F08100000004024010B50024402108489E
:1041D000FCF7BDFB0520FFF72BFBFF20FFF728FBBB
:1041E000044640210248FCF723FC204610BD000095
:1041F0000004024010B500BFFFF7E6FF00F0010029
:104200000028F9D110BD000010B540210548FCF789
:104210009EFB0620FFF70CFB40210248FCF708FC40
:1042200010BD0000000402402DE9F04107460E4693
:104230001446F0B2C0F58075AC4200DC254612E0B1
:104240002A463146384600F013F8AC4200D10BE064
:104250002F442E44601B84B2B4F5807F02DD4FF4FE
:10426000807500E02546EBE700BFBDE8F081000067
:104270002DE9F04106460C461746FFF7C5FF4021E1
:104280001048FCF764FB0220FFF7D2FAC4F30740A2
:10429000FFF7CEFAC4F30720FFF7CAFAE0B2FFF740
:1042A000C7FA002504E0705DFFF7C2FA681C85B20A
:1042B000BD42F8DB40210348FCF7BAFBFFF79AFF49
:1042C000BDE8F0810004024038B515E0694652208F
:1042D000FEF7DAFF044664B169465220FEF7D4FFC8
:1042E000044634B169465220FEF7CEFF044604B1BD
:1042F00038BD0A2000F00AFAE8E700002DE9F04195
:1043000006460D464FF400612948FCF720FB4FF4A8
:1043100080512748FCF71BFB7E2000EA4607082453
:1043200019E007F0800020B140212248FCF780FB13
:1043300003E040211F48FCF70AFB4FF400611C48D2
:10434000FCF776FB7806070E4FF400611848FCF77F
:10435000FEFA601EC4B2002CE3DC082419E005F06C
:10436000800020B140211348FCF762FB03E04021AC
:104370001048FCF7ECFA4FF400610D48FCF758FBCD
:104380006806050E4FF400610948FCF7E0FA601E6C
:10439000C4B2002CE3DC4FF480510548FCF748FB25
:1043A0004FF400610248FCF743FBBDE8F0810000D8
:1043B000001402400000024010B500F029F8082067
:1043C00000F0D2F900F02EF8082000F0CDF910BD71
:1043D0001CB501210420FEF7BBFF4FF400500090F4
:1043E00001208DF8040000208DF8060003208DF8D0
:1043F000050000208DF8070069460448FCF72AFAFA
:104400004FF400510148FCF7A2FA1CBD000802401D
:1044100010B54FF400510248FCF70AFB10BD000034
:104420000008024010B54FF400510248FCF78FFA23
:1044300010BD000000080240F8B504460D462646AF
:10444000102C00DDF8BDC5B148F230400090C4EB3F
:10445000041000EB8000DB2202EB400083B2C4EBCF
:10446000041000EB8000652202EB400081B24FF4A3
:10447000B3726620FDF714F920E04FF6FF7000904C
:10448000C4EB041000EB8000DB2202EB400083B29F
:10449000C4EB041000EB8000652202EB400081B207
:1044A0004FF4B3726620FDF7FBF8962204FB02F08E
:1044B00000F1960102A2C820FEF71DFC00BFC1E773
:1044C00020BFA8B2BBB4E6D4DA2000007CB500253A
:1044D0000024FFF771FF6A4800786A49097888422A
:1044E00049D069480078401C6749087000BF04E063
:1044F000202066490855601CC4B262480078844296
:10450000F6DB61480078012806D161A24FF496716C
:10451000B420FEF7F0FB2AE05B480078022806D1C1
:104520005FA24FF49671B420FEF7E5FB1FE05648FA
:104530000078032806D15EA24FF49671B420FEF7EE
:10454000DAFB14E050480078042806D15CA24FF44E
:104550009671B420FEF7CFFB09E04B4800780528A0
:1045600005D15BA24FF49671B420FEF7C4FB002086
:10457000444908707CBD002551E04448405D5849DD
:10458000495D884249D040480078401C3E49087047
:10459000002404E020203D490855601CC4B239487D
:1045A00000788442F6DB38480078012806D138A22A
:1045B0004FF49671B420FEF79EFB2AE03248007853
:1045C000022806D136A24FF49671B420FEF793FB71
:1045D0001FE02D480078032806D135A24FF49671CC
:1045E000B420FEF788FB14E027480078042806D1A1
:1045F00033A24FF49671B420FEF77DFB09E0224808
:104600000078052805D132A24FF49671B420FEF748
:1046100072FB00201B490870ACE7681CC5B2184843
:104620000078A842A9DCFFF7C7FE002016490870F1
:10463000002404E0202015490855601CC4B20A2C4F
:10464000F8DB00200F490870104818210B46F022B3
:10465000CDE90010C8210846FEF71AFB21A24FF44D
:104660009671B420FEF747FB4FF4FA7000F07CF827
:1046700021A24FF49671B420FEF73DFB012079E7AB
:10468000FA010020FB010020FC010020AE04002004
:10469000C4E3BBB9CAA3CFC234B4CEBBFABBE100FA
:1046A000C4E3BBB9CAA3CFC233B4CEBBFABBE100EB
:1046B000C4E3BBB9CAA3CFC232B4CEBBFABBE100DC
:1046C000C4E3BBB9CAA3CFC231B4CEBBFABBE100CD
:1046D000C4E3BBB9CAA3CFC230B4CEBBFABBE100BE
:1046E000F001002020202020C3DCC2EBD5FDC8B79C
:1046F0002020202020000000202020C7EBCAE4C892
:10470000EBC3DCC2EB20202020200000002107E0CA
:10471000002200E0521C4EF660239A42FAD3491C54
:104720008142F5D3704700004FF0E021096921F084
:1047300004014FF0E0221161C21700EB5272C2F384
:10474000C702074B1A701946097801EB4102C2EB08
:10475000C1114FF6FF7202EAC101024A118070478F
:104760001E0100202001002070B504464FF40770A0
:1047700094FBF0F0C6B24FF4077094FBF0F100FB2D
:10478000114085B205E04FF4077000F027F8701E65
:10479000C6B2002EF7D115B1284600F01FF870BD43
:1047A00001460D4A12784A434FF0E0235A61002235
:1047B0009A6101221A6100BF4FF0E022106900F0F7
:1047C00001021AB100F48032002AF5D000224FF025
:1047D000E0231A619A6170471E01002001460D4ACC
:1047E00012884A434FF0E0235A6100229A61012265
:1047F0001A6100BF4FF0E022106900F001021AB107
:1048000000F48032002AF5D000224FF0E0231A6134
:104810009A6170472001002010B50122102105483F
:10482000FFF7A8FC0348027800210348FFF7A2FC29
:1048300010BD0000FA010020F00100201FB500208B
:104840000390029000BF00BF00BF4FF4E130FFF7BC
:10485000BDFAFFF76FFCFFF76DF8FEF777FEA820B3
:10486000FFF762FFFFF7B4FDFFF73EFAFCF742FFE8
:10487000FEF78AFAFD49086880474FF47840FC4902
:104880000880FCA018210B46C822CDE90010322177
:10489000B420FEF7FDF9FAA010210B46C822CDE99D
:1048A000001050211E20FEF7F3F9F8A010210B464E
:1048B000C822CDE9001064211E20FEF7E9F9C820C6
:1048C000FFF752FFFEF79AFAFFF7A6FFFEF72EFF5B
:1048D0000121F148FFF73DFB01218807FFF771F93E
:1048E000FBF7F0FEED4A4FF4FA710020FEF794FA60
:1048F000A9E2EB480068012808D1EA4908600220D3
:10490000FFF732FF0020E649086017E0E44800683E
:10491000022807D1E3490860FFF726FF0020E0499D
:1049200008600BE0DE480068032807D1DD49086015
:104930000220FFF719FF0020D9490860D948006814
:1049400001284FD14FF6FF70FCF78EFD0120FFF7D5
:104950000BFFD24A4FF4FA710020FEF75DFA00F027
:10496000CFFB30E0D0A23221C820FEF7C4F94FF4CB
:10497000FA710020FCF764FACE48006848B9CE48C6
:1049800018210B46F022CDE90010C8210846FEF799
:104990007FF9FEF791FDC9480068012813D1C8A22C
:1049A0004FF49671B420FEF7A6F9FFF705FDC82075
:1049B000FFF7DAFE0020C1490860C6A24FF49671E5
:1049C000B420FEF798F9B64800680028CAD0B44869
:1049D00000680128C6D0C4A24FF49671B420FEF737
:1049E0008AF930E2AF48006802287DD14FF6FF70A7
:1049F000FCF73AFD0120FFF7B7FEA84A4FF4FA7121
:104A00000020FEF709FA00F07BFBF0E14FF4FA71A9
:104A10000020FCF73FFBA748006848B9A6481821CA
:104A20000B46F022CDE90010C8210846FEF730F908
:104A3000B1A23221C820FEF75EF9B2495220FEF73A
:104A400023FC0028E1D1B048FEF7DFFA0028DCD1D2
:104A5000AE480078FF280FD1AC484078FF280BD132
:104A6000AA488078FF2807D1A848C078FF2803D13A
:104A70000120A749087040E0A6480078FF280FD120
:104A8000A4484078FF280BD1A2488078FF2807D19E
:104A9000A048C078FF2803D102209D4908702CE06F
:104AA0009D480078FF280FD19B484078FF280BD104
:104AB00099488078FF2807D19748C078FF2803D10C
:104AC00003209349087018E094480078FF2811D11A
:104AD00092484078FF280DD190488078FF2809D16E
:104AE0008E48C078FF2800E092E103D10420884975
:104AF000087002E0042086490870834800788749DE
:104B00000978884213D1804840788449497888429E
:104B10000DD17D48807881498978884207D17A48CB
:104B2000C0787E49C978884201D104244EE0764895
:104B3000007876490978884213D1734840787349E0
:104B4000497888420DD170488078704989788842C8
:104B500007D16D48C0786D49C978884201D10124D8
:104B600034E0694800786B490978884213D1664877
:104B700040786849497888420DD163488078654912
:104B80008978884207D16048C0786249C9788842EC
:104B900001D102241AE05C4800785F490978884214
:104BA00013D1594840785C49497888420DD156481C
:104BB000807859498978884207D15348C078564946
:104BC000C978884201D1032400E00024002C28D1B8
:104BD0004F480078012825D151A24FF49671B42096
:104BE000FEF789F8484800784849087046484078F8
:104BF00048704548807888704348C078C870FFF78F
:104C0000DBFB042291024148FFF70EFBFFF75CFB40
:104C10001420FFF7A9FD34A24FF49671B420FEF7DB
:104C20006AF8E4E03A48007802287FD13CA24FF4C9
:104C30009671B420FEF75FF8334800783549087064
:104C40003148407848703048807888702E48C07865
:104C5000C870FFF7B1FB0422D1022E48FFF7E4FA37
:104C6000FFF732FB1420FFF77FFD60E030010020EA
:104C70002A0100204D4B2D343037444B00000000FA
:104C8000544F55434820544553540000323032327B
:104C90002F30312F31300000005000408C010020B7
:104CA000000200200C00002020C3DCC2EBC4A3CA19
:104CB000BD20000008000020AE04002010000020ED
:104CC0002020CDA8B9FDCAD6BBFABDE2CBF8202082
:104CD0000000000020202020202020202020202054
:104CE0002020202000000000202020202020202044
:104CF000202020202000000020D6D8C9E8C3DCC234
:104D0000EB2000001C0200201802002020020020DE
:104D10000200002024020020280200202C02002093
:104D200020C2BCC8EBB3C9B9A620000007E0AFF2AF
:104D300048024FF49671B420FDF7DDFF57E042487A
:104D40000078032828D1AFF228024FF49671B420DE
:104D5000FDF7D1FF3D4800783D4908703B48407859
:104D600048703A48807888703848C078C870FFF733
:104D700023FB04224FF440513548FFF755FAFFF763
:104D8000A3FA1420FFF7F0FCAFF2A4024FF49671DF
:104D9000B420FDF7B0FF2AE02B480078042826D184
:104DA000AFF284024FF49671B420FDF7A4FF2748B8
:104DB0000078284908702548407848702348807852
:104DC00088702248C078C870FFF7F6FA04221103F1
:104DD0002048FFF729FAFFF777FA1420FFF7C4FC01
:104DE000AFF2FC024FF49671B420FDF784FF1A482D
:104DF000006800283FF40AAE174800680228F9D07E
:104E0000AFF21C124FF49671B420FDF774FF1AE054
:104E100012480068032816D14FF6FF70FCF724FBF8
:104E20000120FFF7A1FC00F0B7F801E000F018F84E
:104E3000094800680028F9D0074800680328F5D021
:104E400001200649086054E50200002018020020F5
:104E5000280200202C020020000200200C0000206C
:104E600070B500244548416800208847434890F8C1
:104E7000200000F0800000286ED0002569E03F4847
:104E80008089B0F5B47F4ADA3C488089642846DDE1
:104E90003A48C18A962205FB02F0DC3081423EDAB4
:104EA0003648C18A05FB02F06430814237DD344860
:104EB0000078002830D1681CC4B2012C09D101202F
:104EC000FFF716F9FF202F49087048708870C870E6
:104ED00022E0022C09D10220FFF70AF9FF202A491B
:104EE000087048708870C87016E0032C09D1032040
:104EF000FFF7FEF8FF202549087048708870C870D9
:104F00000AE0042C08D10420FFF7F2F8FF20204922
:104F1000087048708870C870012019490870B4B1D1
:104F20001C480078A04201D100240FE019490978FB
:104F3000491EC8B20021FFF77FFA164804700146E7
:104F40000978491EC8B20121FFF776FA03E0681C10
:104F500085B2042D93DB0EE00E48007858B10D4960
:104F60000978491EC8B20021FFF766FA00200949F6
:104F7000087003490870204670BD00003001002011
:104F80000402002020020020240200202802002029
:104F90002C0200200802002010B54EA23221C820A9
:104FA000FDF7A9FEDC234FF4B47264210846FCF738
:104FB00025FB4FF4B9734FF4B472FA216420FCF767
:104FC0001DFB4FF402734FF4B4724FF4C8716420A8
:104FD000FCF714FB40F29E234FF4B47240F22621FA
:104FE0006420FCF70BFB3E480078FF2811D13C48B9
:104FF0004078FF280DD13A488078FF2809D13848F9
:10500000C078FF2805D137A29621C820FDF773FE8E
:1050100005E0374896210268C820FDF76CFE354848
:105020000078FF2812D133484078FF280ED131484C
:105030008078FF280AD12F48C078FF2806D129A2FE
:105040004FF49671C820FDF756FE06E028484FF44D
:1050500096714268C820FDF74EFE27480078FF2869
:1050600012D125484078FF280ED123488078FF28A8
:105070000AD12148C078FF2806D11AA24FF4E17165
:10508000C820FDF738FE06E019484FF4E171826848
:10509000C820FDF730FE19480078FF2812D11748C4
:1050A0004078FF280ED115488078FF280AD1134890
:1050B000C078FF2806D10BA24FF41671C820FDF767
:1050C0001AFE06E00A484FF41671C268C820FDF7C0
:1050D00012FE10BD20C9BEBFA8C4A3CABD200000D7
:1050E0002002002020BFA8B2BBB4E6D4DA20000022
:1050F0007C01002024020020280200202C02002035
:105100000021054A1170002003E02021034A1154B8
:10511000401C0A28F9DB7047FB010020AE04002088
:105120004FF04070E1EE100A7047000000000000F0
:10513000000000000000000000003F4000000000F0
:105140000000000030004000300040000000090076
:105150000BC03D000BC03D00090018C024407FE09B
:10516000224031800000180024C01B000D80324016
:10517000018003801C4027401C8007400040100035
:1051800060000000000000000000000000000000BF
:105190001F80204040200000402020401F80000051
:1051A0000000090006001F8006000900000004003E
:1051B00004003F80040004000000001000600000B4
:1051C00000000000000004000400040004000400CB
:1051D000000000000040000000000000000000206F
:1051E00001C006003800400000001F802040204021
:1051F00020401F800000000010403FC00040000021
:10520000000018C0214022402440184000001080B7
:105210002040244024401B80000002000D001100AB
:105220003FC0014000003C802440244024402380B3
:1052300000001F80244024403440038000003000E0
:10524000200027C03800200000001B80244024409C
:1052500024401B8000001C0022C0224022401F80EE
:1052600000000000000008400000000000000000F6
:1052700000000460000000000000000004000A00BC
:1052800011002080404009000900090009000900C0
:10529000000000004040208011000A0004001800B7
:1052A000200023402400180000001F8020402740D9
:1052B00029401F400000004007C039000F0001C016
:1052C000004020403FC0244024401B8000001F803D
:1052D0002040204020403080000020403FC020403F
:1052E00020401F80000020403FC024402E4030C09E
:1052F000000020403FC024402E00300000000F007E
:105300001080204022403380020020403FC0040033
:1053100004003FC02040204020403FC020402040AB
:1053200000000060202020203FC0200020002040FE
:105330003FC024400B0030C0204020403FC02040F0
:105340000040004000C03FC03C0003C03C003FC0E4
:10535000000020403FC00C4023003FC020001F80C1
:105360002040204020401F80000020403FC02440BB
:105370002400180000001F802140214020E01FA0D1
:10538000000020403FC02440260019C0004018C043
:1053900024402440224031800000300020403FC0A3
:1053A00020403000000020003F80004000403F804F
:1053B000200020003E0001C0070038002000380017
:1053C00007C03C0007C038000000204039C006007C
:1053D00039C0204000002000384007C0384020007D
:1053E0000000304021C02640384020C000000000AE
:1053F00000007FE0402040200000000070000C0012
:105400000380004000000000402040207FE00000BA
:1054100000000000200040002000000000000010FC
:1054200000100010001000100010000000004000EC
:10543000000000000000000002800540054003C09D
:10544000004020003FC004400440038000000000F2
:105450000380044004400640000000000380044034
:1054600024403FC000400000038005400540034049
:105470000000000004401FC0244024402000000021
:1054800002E0055005500650042020403FC0044073
:10549000040003C000400000044027C0004000009A
:1054A000000000100010041027E000000000204061
:1054B0003FC00140070004C00440204020403FC0DE
:1054C00000400040000007C0040007C0040003C003
:1054D0000000044007C00440040003C00040000076
:1054E00003800440044003800000041007F00450CF
:1054F000044003800000000003800440045007F0D3
:105500000010044007C00240040004000000000036
:1055100006400540054004C00000000004001F8054
:10552000044000400000040007800040044007C021
:1055300000400400070004C00180060004000600CB
:1055400001C0070001C006000000044006C00100C1
:1055500006C0044000000410071004E001800600AB
:1055600004000000044005C00640044000000000A4
:10557000000004007BE0402000000000000000006C
:10558000FFF000000000000040207BE0040000006D
:10559000000040008000400020002000400000008B
:1055A00000000000000000000000000000000000FB
:1055B000000000001FCC000C0000000000000000F4
:1055C0000800300060000800300060000000022089
:1055D00003FC1E20022003FC1E200220000000000D
:1055E0000E1811043FFF10840C78000000000F001B
:1055F00010840F3800C00778188400780000007805
:105600000F8410C411240E9800E4008400080800E0
:1056100068007000000000000000000000000000B2
:105620000000000007E018182004400200000000FD
:1056300040022004181807E00000000000000240AB
:10564000024001800FF00180024002400000008013
:10565000008000800FF800800080008000000001C2
:10566000000D000E0000000000000000000000001F
:1056700000800080008000800080008000800000AA
:10568000000C000C00000000000000000000000002
:1056900000060018006001800600180020000000CD
:1056A00007F0080810041004080807F000000000C4
:1056B000080408041FFC00040004000000000000AF
:1056C0000E0C10141024104411840E0C0000000065
:1056D0000C1810041104110412880C700000000052
:1056E00000E00320042408241FFC00240000000024
:1056F0001F9810841104110410881070000000001D
:1057000007F00888110411041888007000000000D8
:105710001C00100010FC13001C0010000000000012
:105720000E3811441084108411440E38000000001B
:105730000700088C10441044088807F0000000009F
:1057400000000000030C030C00000000000000003B
:105750000000000101060000000000000000000041
:1057600000800140022004100808100400000220FC
:10577000022002200220022002200220000000005D
:1057800010040808041002200140008000000000FE
:105790000E001200100C106C10800F00000003E0CF
:1057A0000C1813E4142417C4082807D000000004C0
:1057B000003C03C41C40074000E4001C000410042B
:1057C0001FFC1104110411040E880070000003E096
:1057D0000C1810041004100410081C100000100411
:1057E0001FFC100410041004080807F00000100447
:1057F0001FFC1104110417C4100408180000100441
:105800001FFC1104110017C010000800000003E085
:105810000C181004100410441C7800400000100400
:105820001FFC10840080008010841FFC1004000006
:10583000100410041FFC10041004000000000003FA
:105840000001100110011FFE1000100000001004E4
:105850001FFC110403801464181C100400001004C1
:105860001FFC1004000400040004000C00001004DD
:105870001FFC1F0000FC1F001FFC10040000100490
:105880001FFC0C04030000E010181FFC100007F0C0
:105890000808100410041004080807F000001004A1
:1058A0001FFC10841080108010800F00000007F093
:1058B000081810241024101C080A07F20000100415
:1058C0001FFC1104110011C011300E0C0004000067
:1058D0000E1C11041084108410441C3800001800A1
:1058E000100010041FFC100410001800000010002D
:1058F0001FF810040004000410041FF8100010002A
:105900001E0011E0001C007013801C0010001FC05E
:10591000103C00E01F0000E0103C1FC0000010041D
:10592000180C163401C001C01634180C10041000F5
:105930001C00130400FC13041C00100000000804E9
:10594000101C1064108413041C04101800000000C4
:10595000000000007FFE4002400240020000000004
:1059600030000C0003800060001C000300000000F9
:105970004002400240027FFE0000000000000000E4
:105980000000200040004000400020000000000116
:105990000001000100010001000100010001000000
:1059A0004000400020000000000000000000000057
:1059B0000098012401440144014400FC000410004B
:1059C0001FFC008801040104008800700000000032
:1059D0000070008801040104010400880000000038
:1059E000007000880104010411081FFC000400007D
:1059F00000F8014401440144014400C800000000D3
:105A0000010401040FFC110411041100180000002E
:105A100000D601290129012901C90106000010044D
:105A20001FFC008401000100010400FC00040000D0
:105A30000104190419FC0004000400000000000027
:105A4000000300010101190119FE0000000010040B
:105A50001FFC0024004001B4010C01040000000000
:105A6000100410041FFC00040004000000000104E6
:105A700001FC0104010001FC0104010000FC01041F
:105A800001FC008401000100010400FC000400008E
:105A900000F8010401040104010400F80000010100
:105AA00001FF00850104010400880070000000006F
:105AB0000070008801040104010501FF00010104D8
:105AC000010401FC008401040100018000000000C9
:105AD00000CC0124012401240124019800000000CD
