:020000040800F2
:10000000A8090020610200086F02000871020008C0
:100010007302000875020008770200080000000063
:10002000000000000000000000000000790200084D
:100030007B020008000000007D0200087F0200082B
:100040008102000881020008810200088102000884
:100050008102000881020008810200088102000874
:100060008102000881020008810200088102000864
:100070008102000881020008810200088102000854
:100080008102000881020008810200088102000844
:100090008102000881020008810200088102000834
:1000A0008102000881020008810200088102000824
:1000B000152D00082D2D000881020008810200087E
:1000C0008102000881020008810200088102000804
:1000D00081020008810200088102000881020008F4
:1000E00081020008810200088102000881020008E4
:1000F00081020008810200088102000881020008D4
:1001000081020008810200088102000881020008C3
:1001100081020008810200088102000881020008B3
:1001200081020008810200088102000881020008A3
:100130008102000881020008810200088102000893
:100140008102000881020008810200088102000883
:100150008102000881020008810200088102000873
:100160008102000881020008810200088102000863
:100170008102000881020008810200088102000853
:10018000810200088102000800F002F800F03EF849
:100190000AA090E8000C82448344AAF10107DA45E2
:1001A00001D100F033F8AFF2090EBAE80F0013F0F6
:1001B000010F18BFFB1A43F001031847204F00003E
:1001C000404F0000103A24BF78C878C1FAD85207CF
:1001D00024BF30C830C144BF04680C6070470000C1
:1001E0000023002400250026103A28BF78C1FBD840
:1001F000520728BF30C148BF0B6070471FB503F0DE
:1002000005FB00F064F81FBD10B510BD00F0ABF8A1
:100210001146FFF7F3FF03F06BF900F0C9F803B4E0
:10022000FFF7F2FF03BC00F0D3F800000B49D1F850
:1002300000C04A685CF8043B1068184442F8040B9C
:100240008C4528BFA1F1DC0C8A4228BFA1F1DC0259
:10025000C1F800C04A6020F000407047400500200F
:100260000B48016841F4700101600A480047FEE74D
:10027000FEE7FEE7FEE7FEE7FEE7FEE7FEE7FEE756
:10028000FEE7000004480549034A054B704700009B
:1002900088ED00E089010008A8050020A8090020D9
:1002A000A80500200B4910B5A1F17C020A4CC2E957
:1002B0003712372106E000EB104342F82130074B9C
:1002C00000FB03400B1EA1F10101F4DC10BD012075
:1002D000E8E70000E0040020E119D666CD0D01003A
:1002E0004FF0013C50F8042B51F8043B9A4221D1C5
:1002F000A2EB0C03934313EACC1317D150F8042B51
:1003000051F8043B9A4215D1A2EB0C03934313EA34
:10031000CC130BD150F8042B51F8043B9A4209D16D
:10032000A2EB0C03934313EACC13DBD04FF0000095
:10033000704700BFD01A01BAB1FA81F101F018017B
:1003400022FA01F0CB40C1F12001DBB2C0B2C01AE9
:100350002CFA01F3D11A914311EAC311E6D1704787
:10036000704770477047754600F02CF8AE460500A0
:100370006946534620F00700854618B020B5FFF7C0
:1003800081FFBDE820404FF000064FF000074FF01E
:1003900000084FF0000B21F00701AC46ACE8C009A3
:1003A000ACE8C009ACE8C009ACE8C0098D467047AC
:1003B00010B50446AFF300802046BDE81040FFF7BB
:1003C0002EBF00000048704748050020704700001D
:1003D00001491820ABBEFEE72600020010B502203E
:1003E00002F0C0FF10BD000010B500200F490860EA
:1003F0000F48006820F040400D490860084600683A
:1004000040F080400860FFF7E9FF00200949C1F88B
:10041000BC02FFF7E3FF012004490860FFF7DEFF9D
:1004200000200449C1F8A80210BD0000A882404283
:1004300000040240008040421CB50D48006840F0B6
:1004400002000B4908600120032100230246CDE988
:1004500000108102074800F004FA01200321002364
:100460000246CDE90010C103024800F0FAF91CBDB4
:10047000303802400004024010B500200F490860E7
:100480000F48006820F040400D49086008460068A9
:1004900040F080400860FFF7A1FF01200949C1F842
:1004A000BC02FFF79BFF012004490860FFF796FF9D
:1004B00000200449C1F8A80210BD0000A8824042F3
:1004C000000402400080404270B5054600241548F3
:1004D000006820F040401349086008460068086042
:1004E0001E2002F03FFF002612E000200E490860A7
:1004F000FFF774FF01200D49C1F8A8026006040E41
:1005000009486C38006808B1601CC4B2701CC6B2DF
:10051000082EEADB15B9FFF7AFFF01E0FFF764FF34
:10052000204670BD00040240A88240420080404244
:1005300070B504461348006820F040401149086037
:100540000846006840F08040086000200E490860BE
:10055000FFF744FF002512E0E0090B491431086061
:100560006006040E01200949C1F8A802FFF736FF12
:10057000002005490860FFF731FF681CC5B2082D4F
:10058000EADB70BD00040240A88240420080404285
:1005900010B50F48006820F040400D49086008463B
:1005A000006840F08040086001200A4908600A495C
:1005B000C1F8A8021E2002F0D5FE002005490860FF
:1005C000FFF70CFF00200449C1F8A80210BD00008D
:1005D00000040240BC8240420080404210B50E48F8
:1005E000006820F040400C4908600846006840F070
:1005F000804008600120094908601E2002F0B2FE18
:1006000000200749C1F8BC02FFF7E8FE01200349BA
:100610001431086010BD000000040240A88240426E
:100620000080404210B500241248006820F040408D
:100630001049086008460068086001200E490860FB
:100640000E49C1F8A802FFF7C9FE09E0601CC4B258
:10065000FA2C03DDFFF7C2FF012010BDFFF7BEFE3D
:100660000548803800680028F0D103491439086033
:1006700000BFF2E700040240BC82404200804042DA
:100680002DE9F04306460F469046002445460320D8
:10069000A0EB480954E007EB050C1FFA8CF306EBBE
:1006A000040C1FFA8CF2A7EB050C1FFA8CF106EB79
:1006B000040C1FFA8CF000F057FD07EB040C1FFA36
:1006C0008CF306EB050C1FFA8CF2A7EB040C1FFA57
:1006D0008CF106EB050C1FFA8CF000F045FD07EBE2
:1006E000050C1FFA8CF3A6EB040C1FFA8CF2A7EB97
:1006F000050C1FFA8CF1A6EB040C1FFA8CF000F02D
:1007000033FD07EB040C1FFA8CF3A6EB050C1FFA64
:100710008CF2A7EB040C1FFA8CF1A6EB050C1FFA68
:100720008CF000F021FD641CB9F1000F03DAA00089
:10073000801D814404E0601B80000A3081446D1EEE
:10074000AC42A8DDBDE8F08330B5CC1000F1200349
:1007500053F824304C07E50E0F24AC40A343CD10D2
:1007600000F1200444F82530CC1000F1200353F8A8
:1007700024304C07E40E02FA04F42343CD1000F1B8
:10078000200444F8253030BDF0B50A46002100238E
:10079000002400BF3DE0012505FA01F3156805EAD4
:1007A00003049C4234D105684F000326BE40B54384
:1007B000056015794E00B54006683543056015792A
:1007C000012D02D01579022D16D185684F00032620
:1007D000BE40B543856055794E00B54086683543C7
:1007E0008560456801268E40B54345604568967929
:1007F0008E40B6B235434560C5684F000326BE4003
:10080000B543C560D5794E00B540C6683543C5606F
:10081000491C1029BFD3F0BDF0B5002300244D07BB
:10082000ED0E02FA05F3CE1000F1200555F8265022
:100830004E07F70E0F26BE40B543CF1000F120063D
:1008400046F82750CE1000F1200555F8265045EA0D
:100850000304CE1000F1200545F82640F0BD418389
:1008600070472DE9F0470C46DDE9086700210025B7
:100870008C4600BF60E04FF0010808FA01F504EA79
:10088000050CAC4557D1D0F800804FEA410A4FF033
:10089000030909FA0AF928EA0908C0F80080D0F823
:1008A00000804FEA410902FA09F948EA0908C0F84C
:1008B0000080012A01D0022A27D1D0F808804FEA0F
:1008C000410A4FF0030909FA0AF928EA0908C0F8B1
:1008D0000880D0F808804FEA410906FA09F948EA89
:1008E0000908C0F80880D0F804904FF0010808FA11
:1008F00001F829EA0809C0F80490D0F8048003FA46
:1009000001F948EA0908C0F80480D0F80C804FEAE1
:10091000410A4FF0030909FA0AF928EA0908C0F860
:100920000C80D0F80C804FEA410907FA09F948EA2F
:100930000908C0F80C80491C10299CD3BDE8F08739
:10094000018370471FB53548006840F040003349C7
:100950000860012000210B460A46CDE90010010283
:100960002F48FFF77EFF0120032100230246CDE937
:100970000010C1032A48FFF774FFFFF75DFD002058
:10098000284908600A2002F0D1FC01202649C1F85C
:10099000BC020A2002F0CAFC002000900346024676
:1009A0004FF4807101901E48FFF75BFF642002F056
:1009B000BDFC042202A948F2401000F03BF80020E0
:1009C0008DF80C0019A102A8FFF78AFC20BB0220B9
:1009D0008DF80800012202A948F2400000F084F9D5
:1009E000012202A948F2470000F024F89DF808000F
:1009F000602802DA012000F049F90A2002F096FC92
:100A000000208DF80800012202A948F2400000F001
:100A10006BF9002004B010BD0020FBE73038024025
:100A200000180240BC0243420000434239313437CF
:100A3000000000002DE9F04105460F461646FFF77D
:100A4000A7FD2820FFF774FDFFF7ECFD2812FFF744
:100A50006FFDFFF7E7FDE8B2FFF76AFDFFF7E2FD84
:100A6000FFF796FD2920FFF763FDFFF7DBFD00246C
:100A70000BE0711EA14201D0012100E000210846D7
:100A8000FFF722FD3855601CC4B2B442F1DBFFF71A
:100A9000A5FDBDE8F081000071B583B000240026FB
:100AA00076480078401C75490870084600780A218D
:100AB00090FBF1F201FB120018B1704800780A288F
:100AC0007EDA012203A948F24E10FFF7B3FF00209F
:100AD0000190012201A948F24E1000F005F99DF89D
:100AE0000C0000F00F0000286AD09DF80C0000F008
:100AF0000F000628E4DA9DF80C0000F00F01FF203B
:100B00008840C0B201905E4890F820509DF80400E3
:100B1000C043C0B240F0C000594981F820000846E7
:100B200081898182C18AC18300244CE0544890F8B5
:100B300020000121A140084020B3524931F814009F
:100B4000042202A9FFF776FF4D4890F8300000F02C
:100B50000100C0B19DF808009DF8091000EB0120CC
:100B600081B24748163020F814109DF80A009DF80D
:100B70000B1000EB0120C0F5487081B240480C30EA
:100B800020F814101BE09DF808009DF8091000EBF8
:100B900001203D490988081A81B239480C3020F8F3
:100BA00014109DF80A009DF80B1000EB0120364947
:100BB0004988081A81B23248163020F8141000E033
:100BC00031E0601CC4B2052CB0DB01262C488089C2
:100BD0002D490988884205DC2948C08A2A49498864
:100BE00088421DDD9DF80C0000F00F0001280ADD91
:100BF0002348C089224988810846008BC88200208A
:100C00001E4908700FE01E48808A1D4988810846E9
:100C1000C08BC88280200390084680F8205002E0F4
:100C20000020164908709DF80C0000F08F00802805
:100C300019D1134890F8200000F0800038B1104816
:100C400090F8200020F080000D4981F820004FF638
:100C5000FF700B498881C882084690F8200000F098
:100C6000E00081F8200005480078F02802DD0A2025
:100C700002490870304604B070BD000040000020FA
:100C80000C0000208E500008E401002038B5054615
:100C9000002400208DF800008DF8015000BF09E00D
:100CA0009DF800000F49095D0844C0B28DF80000AE
:100CB000601CC4B2B82CF3D39DF80000C043401CA4
:100CC000C0B28DF80000B822064948F2470000F093
:100CD0000BF80222694648F2FF0000F005F80020F8
:100CE00038BD0000D64F00082DE9F04104460E46FD
:100CF00017464FF00008FFF74BFC2820FFF718FCC1
:100D0000FFF790FC2012FFF713FCFFF78BFCE0B21B
:100D1000FFF70EFCFFF786FC00250BE0705DFFF788
:100D200007FCFFF77FFC8046B8F1000F00D003E01E
:100D3000681CC5B2BD42F1DB00BFFFF74FFC404667
:100D4000BDE8F08193E04A48416800208847484860
:100D500090F8200000287CD04548808945490988C2
:100D6000884276DA4248C08A42494988884270DA25
:100D70003F4880895A2810DD3D48808996280CDA42
:100D80003B48C08AB0F5877F07DA3948C08AF02827
:100D900003DD01203849C1F86002354880895A28AE
:100DA00012DD3348808996280EDA3148C08AB0F5C2
:100DB0009B7F09DA2E48C08AB0F58C7F04DD4FF0A6
:100DC000FF302D49C1F86002294880890A2812DDC8
:100DD0002748808946280EDA2548C08AB0F5917FD9
:100DE00009DA2348C08AB0F5827F04DD6FF0010084
:100DF0002149C1F860021E488089AA2811DD1C48DB
:100E00008089E6280DDA1A48C08AB0F5917F08DAA1
:100E10001748C08AB0F5827F03DD02201649C1F869
:100E20006002134880895A2813DD1148808996286A
:100E30000FDA0F48C08AB4280BDA0D48C08A96280A
:100E400007DD0D48007820B901200B49087002F039
:100E5000ADFC0A480078022809D100200749087033
:100E60000549D1F8600202F0CDFB02F09DFB6AE774
:100E70000C000020E4010020FC010020A50000205F
:100E80002DE9F843074688468048007810B10020D5
:100E9000BDE8F88300247E484168002088477D48EB
:100EA000007808280BDB00207A490870002504E050
:100EB000202079494855681C85B2092DF8DB744813
:100EC00090F8200000F0800000287DD00025CEE0C2
:100ED0000026BCE06E48818906EB860007EB4010D7
:100EE000A030814271DA6A48808906EB860107EBFF
:100EF0004111884269DD6648C18AC5EB051008EBDF
:100F000080003C308142EDDA6148C08AC5EB0511B2
:100F100008EB81018842EDDD05EB45003044401CC3
:100F2000C4B25E48007800287ED1012C08D131225D
:100F3000584801780078401C564B18705648425467
:100F4000022C08D13221534802780078401C514BC2
:100F5000187051488154032C08D133214D48027830
:100F60000078401C4B4B18704B488154042C08D11E
:100F70003422484801780078401C464B1870464897
:100F80004254052C08D13521424802780078401C93
:100F9000404B187040488154062C08D136213D48FA
:100FA00002780078401C3B4B18703B488154072C5A
:100FB00008D13721374802780078401C354B18702B
:100FC00035488154082C01E055E03EE008D1382135
:100FD000304802780078401C2E4B18702E488154FF
:100FE000092C08D139212B4802780078401C294B64
:100FF0001870294881540A2C08D1302225480178DC
:101000000078401C234B1870234842540B2C09D104
:1010100020480078401E1F49087020211E481D4AA4
:10102000127881540C2C00E00BE00AD102F096F803
:101030001820034600901A4802780021084601F063
:10104000C9FB01201549087004E0701C86B2032E0C
:10105000FFF640AF00BF44B112480078A04201D172
:10106000002401E00F48047004E0681C85B2052DDF
:10107000FFF62EAF07E00B48007820B100200949A9
:10108000087006490870204602E700009B00002017
:101090000C00002099000020F2010020A000002098
:1010A0009A000020A200002070B5044600260948DE
:1010B0000588408845430021084601F0CBFA01F03D
:1010C0001FFC00BF02E004480480761CAE42FAD345
:1010D00070BD0000E40100200010006C10B5044653
:1010E000F4B900201F498871F02008804FF4A070E7
:1010F00048800846808845F2105188422ED14FF42E
:101100003050184908814FF4285048814FF42C5032
:1011100088814FF4F07008804FF4487048801DE0DB
:101120000120104988714FF4A0700880F020488099
:101130000846808845F2105188420FD14FF4305054
:10114000084908814FF4285048814FF42C50888179
:101150004FF4487008804FF4F0704880032001F08D
:10116000DDF910BDE40100202DE9FF4F84B0814678
:101170008A460020039002900698A0EB0905079884
:10118000A0EB0A06CDF80490CDF800A0002D01DDFB
:10119000012705E00DB9002702E04FF0FF376D424F
:1011A000002E02DD4FF0010806E016B94FF00008EE
:1011B00002E04FF0FF387642B54201DD2C4600E0F8
:1011C00034464FF0000B21E0009A91B2019A90B2A0
:1011D00000F022F8039828440390029830440290CB
:1011E0000398A04205DD0398001B03900198384442
:1011F00001900298A04205DD0298001B0290009821
:10120000404400900BF101001FFA80FB601C8345F5
:10121000DADD08B0BDE8F08F30B504460D4629464A
:10122000204601F017FA01F06BFB024800880249E2
:10123000088030BD040000200010006CF0B50446AA
:101240000D4616461F462B46324629462046FFF7D6
:101250008BFF3B46224629462046FFF785FF3B464B
:10126000324639462046FFF77FFF3B463246294645
:101270003046FFF779FFF0BD30B504460D461648FD
:10128000808845F2105188421FD11349488901F0E6
:101290002BFB201201F01CFB0F494989491C88B225
:1012A00001F022FBE0B201F013FB0B49888901F049
:1012B0001BFB281201F00CFB07498989491C88B2E5
:1012C00001F012FBE8B201F003FB03480089034977
:1012D0000880881C028030BDE4010020FE0F006CF5
:1012E0002DE9F04F05460E4617469846DDF824A036
:1012F0004FF0000B781B401C1FFA80FB344613E0B4
:101300002146284601F0A6F901F0FAFA4FF000094B
:1013100006E00748A0F800A009F101001FFA80F9D3
:10132000D945F6DB601C84B24445E9DDBDE8F08FA9
:101330000010006C1CB5FE48006840F07800FC49C5
:1013400008600846006840F002000860084600682F
:1013500040F001000860F6480830006840F00100E5
:10136000F349083108600120032100230222CDE95E
:1013700000104CF23371EF48FFF773FA012003219C
:1013800000230222CDE900104FF68071EA48FFF7F2
:1013900068FA0120032100230222CDE90010114642
:1013A000E648FFF75EFA0120032100230222CDE97F
:1013B00000100103E148FFF754FA01200321002344
:1013C0000246CDE900104102DD48FFF74AFA01204C
:1013D000DC4908600C220021D648FFF7B5F90C2241
:1013E0000121D448FFF7B0F90C220421D148FFF7BE
:1013F000ABF90C220521CF48FFF7A6F90C220821F2
:10140000CC48FFF7A1F90C220921CA48FFF79CF943
:101410000C220A21C748FFF797F90C220E21C54874
:10142000FFF792F90C220F21C248FFF78DF90C2229
:101430000721C148FFF788F90C220821BE48FFF7B1
:1014400083F90C220921BC48FFF77EF90C220A21FE
:10145000B948FFF779F90C220B21B748FFF774F967
:101460000C221146B448FFF76FF90C220D21B24847
:10147000FFF76AF90C220E21AF48FFF765F90C223D
:101480000F21AD48FFF760F90C220121AB48FFF7AF
:101490005BF90C221146A948FFF756F900204FF0DE
:1014A00020418861C861C1F81C010846806940F488
:1014B000805088610846806940F480408861084611
:1014C000806940F0100088610846C069C86108461C
:1014D000C06940F00F00C8610846C06940F4705010
:1014E000C86199480068C1F81C010846D0F81C0181
:1014F00040F00900C1F81C010846D0F81C0140F476
:101500000060C1F81C010846806940F00100886154
:10151000322001F00BFF4FF45A4001F0E5F900F0E2
:10152000F3FF8A4988804FF45B4001F0DDF900F059
:10153000EBFF86498880084680884FF6FF7101EAF4
:101540000020824988804FF45C4001F0CDF900F022
:10155000DBFF7E49898808437C498880084680886B
:10156000B0F5004F02D145F210508880774880884E
:1015700045F2105188421CD17348006820F00F00DA
:101580004FF02041C1F81C010846D0F81C0120F49E
:101590007060C1F81C010846D0F81C0140F003003F
:1015A000C1F81C010846D0F81C0140F40070C1F8D5
:1015B0001C016648808845F2105188427ED1552131
:1015C0004FF4704001F0A6F9AA214FF2010001F09A
:1015D000A1F952214FF2020001F09CF908214FF2CB
:1015E000030001F097F901214FF2040001F092F994
:1015F0000D214FF4304001F08DF90D214BF2010027
:1016000001F088F90D214BF2020001F083F9342139
:101610004FF4364001F07EF934214BF2016001F0C5
:1016200079F934214BF2026001F074F90D214FF485
:10163000314001F06FF90D214BF2011001F06AF910
:101640000D214BF2021001F065F934214FF43740BF
:1016500001F060F934214BF2017001F05BF93421A3
:101660004BF2027001F056F900214FF4324001F0C4
:1016700051F900214BF2012001F04CF900214BF20D
:10168000022001F047F924214FF4384001F042F9DB
:1016900024214BF6010001F03DF924214BF6020014
:1016A00001F038F901214FF43F4001F033F90F21E7
:1016B0004FF4334001F02EF90F2100E0FEE34BF22E
:1016C000013001F027F90F214BF2023001F022F92D
:1016D00034214FF4394001F01DF934214BF601104B
:1016E00001F018F934214BF6021001F013F908212A
:1016F0004FF4354001F00EF908214BF2015001F092
:1017000009F908214BF2025001F004F903214FF4CA
:10171000424001F0FFF824214FF43A4001F0FAF87A
:1017200024214BF6012001F0F5F8242110E00000FF
:1017300030380240000C0240001002400018024005
:1017400000000240A40240421C0100A0E40100206D
:101750004BF6022001F0DEF800214FF43C4001F08E
:10176000D9F878214BF6014001F0D4F800214BF66E
:10177000024001F0CFF800214FF43D4001F0CAF8DB
:1017800078214BF6015001F0C5F800214BF60250CC
:1017900001F0C0F800214FF43E4001F0BBF8642195
:1017A0004BF6016001F0B6F800214FF4514001F012
:1017B000B1F833214DF2011001F0ACF800214DF2E7
:1017C000021001F0A7F834214DF2031001F0A2F845
:1017D00000214DF2041001F09DF83A214DF2051060
:1017E00001F098F800214DF2061001F093F84A211B
:1017F0004DF2071001F08EF800214DF2081001F0B3
:1018000089F85C214DF2091001F084F800214DF2B5
:101810000A1001F07FF881214DF20B1001F07AF8E7
:1018200000214DF20C1001F075F8A6214DF20D10BB
:1018300001F070F800214DF20E1001F06BF8E52177
:101840004DF20F1001F066F801214DF2101001F079
:1018500061F813214DF2111001F05CF801214DF2F5
:10186000121001F057F854214DF2131001F052F804
:1018700001214DF2141001F04DF882214DF21510A6
:1018800001F048F801214DF2161001F043F8CA2189
:101890004DF2171001F03EF802214DF2181001F040
:1018A00039F800214DF2191001F034F802214DF2FF
:1018B0001A1001F02FF801214DF21B1001F02AF847
:1018C00002214DF21C1001F025F834214DF21D10BB
:1018D00001F020F802214DF21E1001F01BF86721E3
:1018E0004DF21F1001F016F802214DF2201001F008
:1018F00011F884214DF2211001F00CF802214DF273
:10190000221001F007F8A4214DF2231001F002F893
:1019100002214DF2241000F0FDFFB7214DF22510F9
:1019200000F0F8FF02214DF2261000F0F3FFCF2166
:101930004DF2271000F0EEFF02214DF2281000F0CA
:10194000E9FFDE214DF2291000F0E4FF02214DF203
:101950002A1000F0DFFFF2214DF22B1000F0DAFF29
:1019600002214DF22C1000F0D5FFFE214DF22D107A
:1019700000F0D0FF03214DF22E1000F0CBFF10211C
:101980004DF22F1000F0C6FF03214DF2301000F091
:10199000C1FF33214DF2311000F0BCFF03214DF2A5
:1019A000321000F0B7FF6D214DF2331000F0B2FF9E
:1019B00000214FF4524000F0ADFF33214DF20120E1
:1019C00000F0A8FF00214DF2022000F0A3FF342117
:1019D0004DF2032000F09EFF00214DF2042000F0A4
:1019E00099FF3A214DF2052000F094FF00214DF2BD
:1019F000062000F08FFF4A214DF2072000F08AFFF9
:101A000000214DF2082000F085FF5C214DF20920F5
:101A100000F080FF00214DF20A2000F07BFF8121C1
:101A20004DF20B2000F076FF00214DF20C2000F06B
:101A300071FFA6214DF20D2000F06CFF00214DF248
:101A40000E2000F067FFE5214DF20F2000F062FF4D
:101A500001214DF2102000F05DFF13214DF2112005
:101A600000F058FF01214DF2122000F053FF5421E5
:101A70004DF2132000F04EFF01214DF2142000F032
:101A800049FF82214DF2152000F044FF01214DF263
:101A9000162000F03FFFCA214DF2172000F03AFF58
:101AA00002214DF2182000F035FF00214DF21920DF
:101AB00000F030FF02214DF21A2000F02BFF01212F
:101AC0004DF21B2000F026FF02214DF21C2000F0F9
:101AD00021FF34214DF21D2000F01CFF02214DF2A8
:101AE0001E2000F017FF67214DF21F2000F012FFAB
:101AF00002214DF2202000F00DFF84214DF2212023
:101B000000F008FF02214DF2222000F003FFA42183
:101B10004DF2232000F0FEFE02214DF2242000F0C1
:101B2000F9FEB7214DF2252000F0F4FE02214DF21E
:101B3000262000F0EFFECF214DF2272000F0EAFE34
:101B400002214DF2282000F0E5FEDE214DF2292091
:101B500000F0E0FE02214DF22A2000F0DBFEF2212F
:101B60004DF22B2000F0D6FE02214DF22C2000F089
:101B7000D1FEFE214DF22D2000F0CCFE03214DF2CE
:101B80002E2000F0C7FE10214DF22F2000F0C2FEE3
:101B900003214DF2302000F0BDFE33214DF2312003
:101BA00000F0B8FE03214DF2322000F0B3FE6D21AB
:101BB0004DF2332000F0AEFE00214FF4534000F010
:101BC000A9FE33214DF2013000F0A4FE00214DF2B8
:101BD000023000F09FFE34214DF2033000F09AFEF7
:101BE00000214DF2043000F095FE3A214DF205300F
:101BF00000F090FE00214DF2063000F08BFE4A21ED
:101C00004DF2073000F086FE00214DF2083000F062
:101C100081FE5C214DF2093000F07CFE00214DF286
:101C20000A3000F077FE81214DF20B3000F072FE99
:101C300000214DF20C3000F06DFEA6214DF20D306A
:101C400000F068FE00214DF20E3000F063FEE52149
:101C50004DF20F3000F05EFE01214DF2103000F029
:101C600059FE13214DF2113000F054FE01214DF2C6
:101C7000123000F04FFE54214DF2133000F04AFEB6
:101C800001214DF2143000F045FE82214DF2153055
:101C900000F040FE01214DF2163000F03BFECA215B
:101CA0004DF2173000F036FE02214DF2183000F0F0
:101CB00031FE00214DF2193000F02CFE02214DF2D0
:101CC0001A3000F027FE01214DF21B3000F022FEF9
:101CD00002214DF21C3000F01DFE34214DF21D306A
:101CE00000F018FE02214DF21E3000F013FE6721B5
:101CF0004DF21F3000F00EFE02214DF2203000F0B8
:101D000009FE84214DF2213000F004FE02214DF243
:101D1000223000F0FFFDA4214DF2233000F0FAFD47
:101D200002214DF2243000F0F5FDB7214DF22530AF
:101D300000F0F0FD02214DF2263000F0EBFDCF2146
:101D40004DF2273000F0E6FD02214DF2283000F080
:101D5000E1FDDE214DF2293000F0DCFD02214DF2E3
:101D60002A3000F0D7FDF2214DF22B3000F0D2FDE9
:101D700002214DF22C3000F0CDFDFE214DF22D3030
:101D800000F0C8FD03214DF22E3000F0C3FD1021FC
:101D90004DF22F3000F0BEFD03214DF2303000F047
:101DA000B9FD33214DF2313000F0B4FD03214DF285
:101DB000323000F0AFFD6D214DF2333000F0AAFD5E
:101DC00000214FF4544000F0A5FD33214DF20140B5
:101DD00000F0A0FD00214DF2024000F09BFD3421F7
:101DE0004DF2034000F096FD00214DF2044000F05A
:101DF00091FD3A214DF2054000F08CFD00214DF29D
:101E0000064000F087FD4A214DF2074000F082FDB8
:101E100000214DF2084000F07DFD5C214DF20940AB
:101E200000F078FD00214DF20A4000F073FD8121A1
:101E30004DF20B4000F06EFD00214DF20C4000F021
:101E400069FDA6214DF20D4000F064FD00214DF228
:101E50000E4000F05FFDE5214DF20F4000F05AFD0D
:101E600001214DF2104000F055FD13214DF21140BB
:101E700000F050FD01214DF2124000F04BFD5421C5
:101E80004DF2134000F046FD01214DF2144000F0E8
:101E900041FD82214DF2154000F03CFD01214DF243
:101EA000164000F037FDCA214DF2174000F032FD18
:101EB00002214DF2184000F02DFD00E011E3002159
:101EC0004DF2194000F026FD02214DF21A4000F0BB
:101ED00021FD01214DF21B4000F01CFD02214DF2BD
:101EE0001C4000F017FD34214DF21D4000F012FDA2
:101EF00002214DF21E4000F00DFD67214DF21F4002
:101F000000F008FD02214DF2204000F003FD842185
:101F10004DF2214000F0FEFC02214DF2224000F083
:101F2000F9FCA4214DF2234000F0F4FC02214DF213
:101F3000244000F0EFFCB7214DF2254000F0EAFC10
:101F400002214DF2264000F0E5FCCF214DF2274062
:101F500000F0E0FC02214DF2284000F0DBFCDE2125
:101F60004DF2294000F0D6FC02214DF22A4000F04B
:101F7000D1FCF2214DF22B4000F0CCFC02214DF2BD
:101F80002C4000F0C7FCFE214DF22D4000F0C2FCB9
:101F900003214DF22E4000F0BDFC10214DF22F40E8
:101FA00000F0B8FC03214DF2304000F0B3FC3321C7
:101FB0004DF2314000F0AEFC03214DF2324000F012
:101FC000A9FC6D214DF2334000F0A4FC00214FF438
:101FD000554000F09FFC33214DF2015000F09AFC77
:101FE00000214DF2025000F095FC34214DF20350D7
:101FF00000F090FC00214DF2045000F08BFC3A21DF
:102000004DF2055000F086FC00214DF2065000F024
:1020100081FC4A214DF2075000F07CFC00214DF27A
:10202000085000F077FC5C214DF2095000F072FC82
:1020300000214DF20A5000F06DFC81214DF20B5051
:1020400000F068FC00214DF20C5000F063FCA6216A
:102050004DF20D5000F05EFC00214DF20E5000F0EC
:1020600059FCE5214DF20F5000F054FC01214DF2D6
:10207000105000F04FFC13214DF2115000F04AFCBB
:1020800001214DF2125000F045FC54214DF2135045
:1020900000F040FC01214DF2145000F03BFC822185
:1020A0004DF2155000F036FC01214DF2165000F0B3
:1020B00031FCCA214DF2175000F02CFC02214DF2E8
:1020C000185000F027FC00214DF2195000F022FCBE
:1020D00002214DF21A5000F01DFC01214DF21B505F
:1020E00000F018FC02214DF21C5000F013FC3421CA
:1020F0004DF21D5000F00EFC02214DF21E5000F07A
:1021000009FC67214DF21F5000F004FC02214DF242
:10211000205000F0FFFB84214DF2215000F0FAFB2B
:1021200002214DF2225000F0F5FBA4214DF2235084
:1021300000F0F0FB02214DF2245000F0EBFBB72140
:102140004DF2255000F0E6FB02214DF2265000F042
:10215000E1FBCF214DF2275000F0DCFB02214DF2D4
:10216000285000F0D7FBDE214DF2295000F0D2FBC1
:1021700002214DF22A5000F0CDFBF2214DF22B50FE
:1021800000F0C8FB02214DF22C5000F0C3FBFE21F1
:102190004DF22D5000F0BEFB03214DF22E5000F009
:1021A000B9FB10214DF22F5000F0B4FB03214DF28A
:1021B000305000F0AFFB33214DF2315000F0AAFB5C
:1021C00003214DF2325000F0A5FB6D214DF233504A
:1021D00000F0A0FB00214FF4564000F09BFB3321A0
:1021E0004DF2016000F096FB00214DF2026000F01C
:1021F00091FB34214DF2036000F08CFB00214DF285
:10220000046000F087FB3A214DF2056000F082FB8C
:1022100000214DF2066000F07DFB4A214DF207607F
:1022200000F078FB00214DF2086000F073FB5C21A8
:102230004DF2096000F06EFB00214DF20A6000F0E3
:1022400069FB81214DF20B6000F064FB00214DF22F
:102250000C6000F05FFBA6214DF20D6000F05AFB10
:1022600000214DF20E6000F055FBE5214DF20F60AC
:1022700000F050FB01214DF2106000F04BFB1321E8
:102280004DF2116000F046FB01214DF2126000F0AA
:1022900041FB54214DF2136000F03CFB01214DF253
:1022A000146000F037FB82214DF2156000F032FB24
:1022B00001214DF2166000F02DFBCA214DF217608E
:1022C00000F028FB02214DF2186000F023FB0021F2
:1022D0004DF2196000F01EFB02214DF21A6000F071
:1022E00019FB01214DF21B6000F014FB02214DF29D
:1022F0001C6000F00FFB34214DF21D6000F00AFB62
:1023000002214DF21E6000F005FB67214DF21F60B7
:1023100000F000FB02214DF2206000F0FBFA842166
:102320004DF2216000F0F6FA02214DF2226000F039
:10233000F1FAA4214DF2236000F0ECFA02214DF2F3
:10234000246000F0E7FAB7214DF2256000F0E2FAD0
:1023500002214DF2266000F0DDFACF214DF2276018
:1023600000F0D8FA02214DF2286000F0D3FADE2105
:102370004DF2296000F0CEFA02214DF22A6000F001
:10238000C9FAF2214DF22B6000F0C4FA02214DF29D
:102390002C6000F0BFFAFE214DF22D6000F0BAFA79
:1023A00003214DF22E6000F0B5FA10214DF22F609E
:1023B00000F0B0FA03214DF2306000F0ABFA3321A7
:1023C0004DF2316000F0A6FA03214DF2326000F0C8
:1023D000A1FA6D214DF2336000F09CFA55214FF4C3
:1023E000704000F097FAAA214FF2010000F092FA33
:1023F00052214FF2020000F08DFA08214FF2030043
:1024000000F088FA00214FF2040000F083FACC219A
:102410004FF4314000F07EFA00214BF2011000F041
:1024200079FA05214FF4364000F074FA70214FF428
:10243000374000F06FFA70214BF2017000F06AFA39
:1024400001214FF4384000F065FA03214BF60100FA
:1024500000F060FA03214BF6020000F05BFA032162
:102460004BF6030000F056FA02214FF43C4000F016
:1024700051FA00214BF6014000F04CFA00214BF6D6
:10248000024000F047FAD0214FF4494000F042FAF0
:1024900002214CF6011000F03DFA50214CF60210DA
:1024A00000F038FA50214CF6031000F033FA5021B6
:1024B0004CF6041000F02EFA00214FF4545000F0B6
:1024C00029FA55214FF4685000F024FA4FF488504F
:1024D00000F00AFA782000F045FF4FF4245000F095
:1024E00003FA0020FEF7FAFD4FF6FF70FEF7DCFD61
:1024F0001CBD10B50246012000E050430B1EA1F1A7
:102500000104E1B2F9D110BD08B50348008800907C
:10251000BDF8000008BD00000010006C70B5054655
:10252000002400264A48808845F2105188427CD118
:10253000082D1CD2DFE805F00406090C0F1215184F
:1025400000BF14E044F0800411E044F040040EE0C9
:1025500044F0C0040BE044F0200408E044F06004C0
:1025600005E044F0A00402E044F0E00400BF00BF36
:102570003748808845F21051884201D14FF45856AF
:102580003348808845F21051884201D044F0080455
:102590002146304600F0BEF92D48808845F21051A2
:1025A000884253D12A49488900F09EF9002000F062
:1025B0008FF927494989491C88B200F095F9002014
:1025C00000F086F922494989891C88B200F08CF90B
:1025D0001F490988491EC1F30F2000F079F91C49F1
:1025E0004989C91C88B200F07FF919490978491E48
:1025F000C8B200F06DF91649888900F075F900201D
:1026000000F066F912498989491C88B200F06CF91A
:10261000002000F05DF90E498989891C88B200F01C
:1026200063F90B494988491E00E00FE0C1F30F2010
:1026300000F04EF906498989C91C88B200F054F9A6
:1026400003498978491EC8B200F042F970BD000004
:10265000E401002010B502460C461348808845F27C
:10266000105188421FD11049488900F03DF91012DD
:1026700000F02EF90C494989491C88B200F034F960
:10268000D0B200F025F90849888900F02DF9201210
:1026900000F01EF904498989491C88B200F024F928
:1026A000E0B200F015F910BDE40100202DE9F84F6B
:1026B00080460E4617461C46B3462046E31704EBF9
:1026C0005373DB1021464FEAE47C04EB5C7C4FEA59
:1026D000EC0CA4EBCC0CBCF1000F02D04FF0010CC1
:1026E00001E04FF0000C6344224604EBD27C4FEA39
:1026F0006C0C03FB0CF3DBB20093A7F12000C7B214
:10270000002556E00C2C07D107EB47002B4901EBC5
:10271000800010F8059013E0102C05D1284800EB3C
:10272000071010F805900BE0182C07D107EBC70035
:10273000244901EB800010F8059001E0BDE8F88F16
:102740004FF0000A2FE009F0800030B11E480288E7
:1027500031464046FEF790FD07E00A9828B91B482D
:10276000028831464046FEF787FD4FEA49604FEA4E
:102770001069701C86B216484088B04200DCDDE764
:10278000A6EB0B00A0420AD15E4608F101001FFA39
:1027900080F80F480088404500DCCFE706E00AF1EA
:1027A000010000F0FF0ABAF1080FCCDB00BF681C83
:1027B000C5B200988542A5DB00BFBFE71638000808
:1027C0008A3C00087A42000804000020060000202D
:1027D000E40100202DE9FF4F81B0074691461E46D7
:1027E0000E9D4FF0000A002439E0301B401EC1B29C
:1027F0000A20FFF77EFEB9FBF0F00A21B0FBF1F2F0
:1028000001FB1208BAF1000F16D1701EA04213DDB1
:10281000B8F1000F0ED10020AB4605EBDB7149107B
:1028200001FB0471009088B22B4620220299FFF729
:102830003DFF12E04FF0010A0020AB4605EBDB71D3
:10284000491001FB0471009088B208F13001CAB24E
:102850002B460299FFF72AFF00BF601CC4B2B442A6
:10286000C3DB05B0BDE8F08F2DE9F84704460D46FF
:1028700090469946DDE9096704F0FF0A08EB040079
:102880001FFA80F809EB05001FFA80F916E04445AD
:1028900002DB5446A81985B24D4500DB14E0002048
:1028A00000903A78334629462046FFF7FFFE30462F
:1028B00006EBD07104EB61018CB27F1C38787E2866
:1028C00002DC38782028E2DA00BFBDE8F887000093
:1028D00001B5BDF800000090BDF800000149088076
:1028E00008BD00000010006C01B5BDF800000090AC
:1028F000BDF800000149088008BD0000FE0F006C13
:10290000024800890249088070470000E401002065
:10291000FE0F006C024A1080921C1180704700006C
:10292000FE0F006C1CB50121202000F025F9FF20CE
:10293000009001208DF8040000208DF8060003208F
:102940008DF8050000208DF8070069461148FDF755
:102950001BFF01210F48FDF7F3FF02210D48FDF792
:10296000EFFF04210B48FDF7EBFF08210948FDF7B5
:10297000E7FF10210748FDF7E3FF20210548FDF799
:10298000DFFF40210348FDF7DBFF80210148FDF711
:10299000D7FF1CBD0014024008B51F20194908804C
:1029A000E6231A460A210846FEF748FC1F204FF48A
:1029B00087739622F02100905A20FEF791FC1F2089
:1029C0004FF4917346224FF4827100900A20FEF773
:1029D00087FC1F204FF49B7396224FF48C7100905C
:1029E0005A20FEF77DFC1F204FF49173E6224FF42E
:1029F00082710090AA20FEF773FC4FF478400149E1
:102A0000088008BD040000202DE9FC4705460C465F
:102A100091460020334908804FF6FF70009004F182
:102A2000960083B205F1F00082B221462846FEF7F7
:102A300057FC04F22B1083B205F2DF1082B221465C
:102A40002846FEF7FBFB04F22B118BB205F5A071B3
:102A50008AB2A03988B22146FEF7F0FB04F1F000FB
:102A600083B205F2DF1082B204F13C0081B2284645
:102A7000FEF7E4FB04F1B40083B205F2DF1082B28A
:102A800004F1780081B22846FEF7D8FB00201549F2
:102A90000880002622E0032096FBF0F104F11400E8
:102AA0003C2202FB010087B2032096FBF0F100FB01
:102AB000116000EB800005EB40103C301FFA80F8FD
:102AC000094850F8260010211E233022CDE90010BD
:102AD00039464046FFF7C8FE701C86B20F2EDADB7F
:102AE000BDE8FC87040000205800002070B50021DC
:102AF00000230F22C4781CB3174C246804F4E0644C
:102B0000C4F5E064C4F30721C1F10404E3B20A414F
:102B100044789C40E1B28478144021430C07210E94
:102B20000E4C05786155047804F01F050124AC4073
:102B300005786D11AD0005F1E025C5F8004109E00B
:102B4000047804F01F050124AC40054D0678761189
:102B500045F8264070BD00000CED00E000E400E008
:102B600080E100E002490143024A11607047000021
:102B70000000FA050CED00E029B1064A1268024394
:102B8000044B1A6004E0034A12688243014B1A6046
:102B9000704700003038024029B1064A12680243EB
:102BA000044B1A6004E0034A12688243014B1A6026
:102BB0007047000040380240F0B500210022002498
:102BC000022500260223324F3F6807F00C0121B195
:102BD000042905D0082937D105E02E4F076036E0DB
:102BE0002D4F076033E02A4F3F1F3F68C7F38056E1
:102BF000274F3F1F3F6807F03F036EB1264FB7FBDB
:102C0000F3F7DFF88CC0ACF1040CDCF800C0CCF3B7
:102C1000881C07FB0CF40CE01E4FB7FBF3F7DFF842
:102C200070C0ACF1040CDCF800C0CCF3881C07FBCE
:102C30000CF4174F3F1F3F68C7F301477F1C7D000F
:102C4000B4FBF5F7076002E0124F076000BF00BF5A
:102C50000F4F3F6807F0F0010909104F7A5C0768D1
:102C6000D74047600A4F3F6807F4E051890A0B4F8D
:102C70007A5C4768D7408760054F3F6807F460413A
:102C8000490B064F7A5C4768D740C760F0BD00002B
:102C9000083802400024F40040787D014100002003
:102CA0001FB54FF4C060FFF75DFF1C208DF80000DA
:102CB00000208DF8010001208DF802008DF803003E
:102CC0006846FFF713FF01210846FFF765FF40F64E
:102CD0009F70029041F61F40ADF804000020ADF84F
:102CE0000C00ADF8060001A94FF0804000F09CF800
:102CF0000121880700F062F80121880700F06AF8D6
:102D000001221146900700F085F80121880700F0A4
:102D100064F81FBD10B50121880700F06AF801288A
:102D200003D10121800700F055F810BD10B5012135
:102D3000074800F05EF8012804D106480078401CDE
:102D4000044908700121024800F044F810BD000059
:102D500000040040A50000207FB505460C46012177
:102D60000220FFF719FF0295ADF804400020ADF8EE
:102D70000600ADF80C0001A90F4800F055F801223B
:102D800011460D4800F046F801210B4800F025F8E7
:102D90001D208DF8000001208DF8010003208DF822
:102DA000020001208DF803006846FFF79FFE012115
:102DB000014800F012F87FBD0004004021B10288F4
:102DC00042F08002028004E002884FF67F731A40CE
:102DD00002807047CA430282704721B1028842F0E4
:102DE0000102028004E002884FF6FE731A4002805E
:102DF000704730B50246002000230024158A05EAFA
:102E00000103958905EA010413B10CB1012000E02A
:102E1000002030BD1AB183890B43838102E083898E
:102E20008B4383817047000000220288184B984230
:102E30000ED0184B98420BD0B0F1804F08D0164BF3
:102E4000984205D0154B984202D0154B984204D1B8
:102E50004FF68F731A404B881A43124B984207D093
:102E6000114B984204D04FF6FF431A400B891A4386
:102E700002804B68C3620B880385054B984202D0E1
:102E8000044B984201D18B7A0386012383827047D9
:102E90000000014000040140000400400008004020
:102EA000000C0040001000400014004010B5114814
:102EB000808845F2105188421AD1FDF743FD10B9C0
:102EC0000D480E4948600D4890F8300040F08000F1
:102ED0000A4981F83000084690F8300005498979A0
:102EE00001F001010843054981F83000002010BDC0
:102EF0000120FCE7E4010020990A00080C000020F2
:102F000000B587B0002033494872486008723248E3
:102F1000086001210420FFF72FFE01218804FFF73C
:102F20003BFE02208DF8180000208DF81A000120C9
:102F30008DF81B0000208DF819004FF400600590FB
:102F400005A92648FDF720FC4FF48060059005A9EF
:102F50002248FDF719FC07220A212048FDF75CFCF6
:102F600007220B211D48FDF757FC4FF4E13001907B
:102F70000020ADF80800ADF80A00ADF80C00ADF87F
:102F800010000C20ADF80E0001A9154800F05CF807
:102F90000121134800F026F8012240F22551104883
:102FA00000F02CF84FF4A060FFF7DCFD27208DF82F
:102FB000000000208DF801008DF8020001208DF83E
:102FC00003006846FFF792FD0121054800F00AF86A
:102FD00007B000BDD8010020AC000020000802406E
:102FE0000048004021B1828942F40052828104E00D
:102FF00082894DF6FF731A4082817047F0B503460F
:10300000002400260025002040F66A17B94200D1AE
:1030100000BF1846C1F3421401F01F06012707FA4A
:1030200006F5012C01D10C3004E0022C01D1103046
:1030300000E014301AB107682F43076002E0076808
:10304000AF430760F0BD00002DE9FF4705460E467F
:103050000024A14600BFA046B08900B100BF2C8A61
:1030600024F44054F08804432C82AC8941F20C6073
:103070008443B08831890843718908430443AC8193
:10308000AC8A24F44074B0890443AC826846FFF7EC
:1030900093FD2048854202D01F48854202D1DDF8C9
:1030A0000C9001E0DDF80890A88900F4004040B1E0
:1030B00009EBC90000EB091031684900B0FBF1F7DA
:1030C00007E009EBC90000EB091031688900B0FB8B
:1030D000F1F76420B7FBF0F004012009642101FB43
:1030E0001078A88900F4004040B1322000EBC800FD
:1030F000B0FBF1F000F00700044308E0322000EBE1
:1031000008106421B0FBF1F000F00F0004432C81A3
:10311000BDE8FF8700100140001401401CB50121EB
:103120000420FFF729FD4FF40050009001208DF896
:10313000040000208DF8060003208DF80500002013
:103140008DF8070069460448FDF71EFB4FF4005157
:103150000148FDF784FB1CBD000802407CB500253A
:1031600000243748007805281ED036480078401CD7
:103170003449087000BF04E0202033490855601C22
:10318000C4B22F4800788442F6DB30A018210B46E9
:103190000A46CDE900104FF4C8716420FFF764FBC4
:1031A0000020274908707CBD002526E02648405DA8
:1031B0002749495D88421ED022480078401C214999
:1031C0000870002404E020201F490855601CC4B288
:1031D0001B4800788442F6DB1CA018210B460A46E7
:1031E000CDE900104FF4C8716420FFF73DFB0020CB
:1031F00013490870D7E7681CC5B2052DD6DB00203F
:103200001049087013A018210B460A46CDE900109A
:103210004FF4C8716420FFF727FB01200E490860B6
:10322000002404E0202008490855601CC4B204486A
:1032300000788442F6DB00200149087000BFB2E745
:10324000990000209A000020F20100204E000000AA
:1032500094000020590000009C0000201CB50020B4
:103260001C4981F85B02C87000211A480171417144
:103270000020184981F82F010021164880F83011EC
:1032800080F83111C07813494870084690F82F0132
:1032900088700020C1F85C0208700FA010210B4656
:1032A000C822CDE9001032215020FFF7DDFA1F209F
:1032B000B4239622114600905A20FEF711F809A077
:1032C00010210B46C822CDE90010A0215C20FFF799
:1032D000CBFA1CBDFC010020596F75206465616448
:1032E0002121210072657374617274004FF0E02136
:1032F000096921F004014FF0E0221161C21700EBCF
:103300005272C2F3C702074B1A701946097801EBD3
:103310004102C2EBC1114FF6FF7202EAC101024A3B
:1033200011807047000000200200002070B50446A4
:103330004FF4077094FBF0F0C6B24FF4077094FBA3
:10334000F0F100FB114085B205E04FF4077000F08A
:1033500027F8701EC6B2002EF7D115B1284600F02E
:103360001FF870BD01460D4A12784A434FF0E02322
:103370005A6100229A6101221A6100BF4FF0E022D7
:10338000106900F001021AB100F48032002AF5D071
:1033900000224FF0E0231A619A617047000000207C
:1033A00001460D4A12884A434FF0E0235A61002239
:1033B0009A6101221A6100BF4FF0E022106900F00B
:1033C00001021AB100F48032002AF5D000224FF039
:1033D000E0231A619A6170470200002010B5FCF7E3
:1033E00025FF162190FBF1F201FB1200441C012085
:1033F00000EB440000EB8000204981F86402FCF7F8
:1034000015FF162190FBF1F201FB1200441C012074
:1034100000EB440000EB8000184981F865021FE0D2
:10342000FCF704FF162190FBF1F201FB1200441C93
:10343000012000EB440000EB8000104981F8640299
:10344000FCF7F4FE162190FBF1F201FB1200441C84
:10345000012000EB440000EB8000084981F8650280
:10346000064890F8653290F8642200F22F11C01CD3
:1034700000F006F80028D3D110BD0000FC010020A8
:1034800030B504460D46002109E0605C904204D14D
:10349000685C984201D1012030BD481CC1B203488C
:1034A00090F85B028842F0DC0020F5E7FC01002088
:1034B000012111E00C48405C0B4AD21E5278904228
:1034C00008D10A48405C084AD21E9278904201D145
:1034D00000207047481CC1B20348C01E90F85B0230
:1034E0008842E7DC0120F4E7FF0100202B030020E5
:1034F0002DE9FC41002400250026FFF7D1FBA82080
:10350000FFF7F4FEFFF70AFEFFF7FAFCFDF712FFE4
:10351000FFF708FA1F490868804700274FF47840F2
:103520001D4908806420FFF701FF41F61F4141F269
:103530008730FFF711FC194A4FF4FA710020FFF7AA
:1035400063FA14E04FF4FA710020FDF799FC144877
:1035500018210B46F022CDE900104FF4C871C820A5
:10356000FFF782F90F480068012800D100E0E9E781
:1035700000BF4FF6FF70FDF797FD6420FFF7D6FE02
:10358000FFF70AFA00F012F9FDF7DCFB0020BDE8B6
:10359000FC8100000C0000200400002058000020E6
:1035A000F20100209C00002038B514480078012862
:1035B00022D14FF6FF70E5231A460B2100900846F2
:1035C000FDF78EFE002409E00D4A115DA2F596720A
:1035D000105D0522FDF754F8601CC4B2074890F84E
:1035E0005B02A042F0DC054A92F8651292F8640290
:1035F0000522FDF745F800BF38BD0000FC010020A2
:103600002B03002070B505466648007801287CD160
:10361000644AD2F85C02291E01DB0A4600E04A42F5
:10362000002801DB034600E043429A4203D05D4894
:10363000C0F85C5202E05B48D0F85C5215F1020F12
:1036400013D0B5F1FF3F0AD0012D02D0022D18D1C1
:1036500011E0544880780A385249887011E0514886
:1036600080780A304F4988700BE04E4840780A381D
:103670004C49487005E04B4840780A304949487049
:1036800000BF00BF47484078464991F8641288421D
:1036900041D144488078434991F8651288423AD133
:1036A000404890F85B02401C3E4981F85B020124CF
:1036B0001DE03C4890F85B02001B401E3949C91CC4
:1036C000095C384890F85B02021B3648C01C8154E4
:1036D000C01E90F85B02001B401E3349095C314854
:1036E00090F85B02021B30488154601CC4B22D4824
:1036F00090F85B02A042DCDC2A4890F86402294979
:10370000C870084690F8650200E031E081F82F01AA
:10371000FFF764FE2CE001241DE0224890F85B02D4
:10372000001B401E1F49C91C095C1E4890F85B0223
:10373000021B1C48C01C8154C01E90F85B02001B79
:10374000401E1949095C174890F85B02021B164895
:103750008154601CC4B2134890F85B02A042DCDCC8
:10376000104840780F49C8700846807881F82F01CA
:103770000C488078E62812DA0A4880780A280EDD9C
:1037800008484078E6280ADA064840780A2806DD24
:10379000FFF78EFE18B101200249087001E0FFF723
:1037A0005DFD70BDFC0100202B03002010B541F62B
:1037B0001F414FF4FA70FFF7CFFA0320124981F846
:1037C0005B023720C87037210F48017141713720E3
:1037D0000D4981F82F0141210B4880F830114B2110
:1037E00080F83111C07808494870084690F82F01D8
:1037F00088700120C1F85C02C1F860020870FFF710
:10380000EDFDFFF7D1FE10BDFC0100204FF0407030
:10381000E1EE100A70470000000000000000000008
:103820000000000000003F40000000000000000019
:103830003000400030004000000009000BC03D0097
:103840000BC03D00090018C024407FE022403180B9
:103850000000180024C01B000D803240018003804E
:103860001C4027401C800740004010006000000002
:103870000000000000000000000000001F80204049
:1038800040200000402020401F8000000000090070
:1038900006001F80060009000000040004003F80AD
:1038A00004000400000000100060000000000000A0
:1038B00000000400040004000400040000000000F4
:1038C00000400000000000000000002001C00600D1
:1038D0003800400000001F802040204020401F8012
:1038E0000000000010403FC000400000000018C071
:1038F00021402240244018400000108020402440F5
:1039000024401B80000002000D0011003FC0014058
:1039100000003C80244024402440238000001F807D
:10392000244024403440038000003000200027C0A1
:103930003800200000001B802440244024401B80CD
:1039400000001C0022C0224022401F800000000016
:1039500000000840000000000000000000000460BB
:10396000000000000000000004000A001100208098
:10397000404009000900090009000900000000009A
:103980004040208011000A0004001800200023405D
:103990002400180000001F802040274029401F40BD
:1039A0000000004007C039000F0001C00040204067
:1039B0003FC0244024401B8000001F802040204046
:1039C00020403080000020403FC0204020401F8029
:1039D000000020403FC024402E4030C00000204066
:1039E0003FC024402E00300000000F001080204017
:1039F00022403380020020403FC0040004003FC04A
:103A00002040204020403FC0204020400000006077
:103A1000202020203FC02000200020403FC0244024
:103A20000B0030C0204020403FC0204000400040FC
:103A300000C03FC03C0003C03C003FC0000020402D
:103A40003FC00C4023003FC020001F80204020408A
:103A500020401F80000020403FC024402400180068
:103A600000001F802140214020E01FA000002040D6
:103A70003FC02440260019C0004018C02440244004
:103A8000224031800000300020403FC02040300004
:103A9000000020003F80004000403F8020002000C8
:103AA0003E0001C0070038002000380007C03C007D
:103AB00007C038000000204039C0060039C020404F
:103AC00000002000384007C038402000000030408F
:103AD00021C02640384020C00000000000007FE0E8
:103AE000402040200000000070000C0003800040D7
:103AF00000000000402040207FE0000000000000A7
:103B00002000400020000000000000100010001005
:103B10000010001000100000000040000000000035
:103B20000000000002800540054003C00040200066
:103B30003FC00440044003800000000003800440B4
:103B400004400640000000000380044024403FC0C1
:103B500000400000038005400540034000000000D5
:103B600004401FC0244024402000000002E0055013
:103B700005500650042020403FC00440040003C00C
:103B800000400000044027C000400000000000107A
:103B90000010041027E00000000020403FC001405A
:103BA000070004C00440204020403FC000400040C7
:103BB000000007C0040007C0040003C00000044068
:103BC00007C00440040003C000400000038004401C
:103BD000044003800000041007F0045004400380F8
:103BE0000000000003800440045007F0001004406F
:103BF00007C0024004000400000000000640054029
:103C0000054004C00000000004001F800440004084
:103C10000000040007800040044007C0004004008A
:103C2000070004C0018006000400060001C0070070
:103C300001C006000000044006C0010006C00440A8
:103C400000000410071004E00180060004000000DA
:103C5000044005C0064004400000000000000400CD
:103C60007BE040200000000000000000FFF00000AA
:103C70000000000040207BE0040000000000400045
:103C800080004000200020004000000000000000F4
:103C90000000000000000000000000000000000024
:103CA0001FCC000C000000000000000008003000E5
:103CB00060000800300060000000022003FC1E20AD
:103CC000022003FC1E200220000000000E18110438
:103CD0003FFF10840C78000000000F0010840F38A4
:103CE00000C0077818840078000000780F8410C4A2
:103CF00011240E9800E40084000808006800700099
:103D000000000000000000000000000000000000B3
:103D100007E01818200440020000000040022004C0
:103D2000181807E000000000000002400240018077
:103D30000FF00180024002400000008000800080FF
:103D40000FF800800080008000000001000D000ED0
:103D50000000000000000000000000000080008063
:103D6000008000800080008000800000000C000CBB
:103D70000000000000000000000000000006001825
:103D800000600180060018002000000007F008080D
:103D900010041004080807F00000000008040804DC
:103DA0001FFC000400040000000000000E0C1014B2
:103DB0001024104411840E0C000000000C18100494
:103DC0001104110412880C700000000000E00320B0
:103DD000042408241FFC0024000000001F98108405
:103DE00011041104108810700000000007F008880A
:103DF0001104110418880070000000001C0010005D
:103E000010FC13001C001000000000000E381144CC
:103E10001084108411440E38000000000700088C44
:103E200010441044088807F0000000000000000063
:103E3000030C030C00000000000000000000000163
:103E400001060000000000000000000000800140AA
:103E500002200410080810040000022002200220A2
:103E600002200220022002200000000010040808A6
:103E70000410022001400080000000000E0012002B
:103E8000100C106C10800F00000003E00C1813E4FD
:103E9000142417C4082807D000000004003C03C401
:103EA0001C40074000E4001C000410041FFC110427
:103EB000110411040E880070000003E00C181004B7
:103EC0001004100410081C10000010041FFC100443
:103ED00010041004080807F0000010041FFC11046F
:103EE000110417C410040818000010041FFC11046A
:103EF000110017C010000800000003E00C181004A7
:103F0000100410441C780040000010041FFC1084B2
:103F10000080008010841FFC1004000010041004B6
:103F20001FFC100410040000000000030001100139
:103F300010011FFE10001000000010041FFC1104EF
:103F400003801464181C1004000010041FFC1004EB
:103F5000000400040004000C000010041FFC1F00FB
:103F600000FC1F001FFC1004000010041FFC0C04C8
:103F7000030000E010181FFC100007F008081004F0
:103F800010041004080807F0000010041FFC10843F
:103F90001080108010800F00000007F00818102417
:103FA0001024101C080A07F2000010041FFC110462
:103FB000110011C011300E0C000400000E1C110481
:103FC0001084108410441C380000180010001004E5
:103FD0001FFC100410001800000010001FF810044F
:103FE0000004000410041FF8100010001E0011E06F
:103FF000001C007013801C0010001FC0103C00E06B
:104000001F0000E0103C1FC000001004180C163404
:1040100001C001C01634180C100410001C00130459
:1040200000FC13041C00100000000804101C1064A5
:10403000108413041C04101800000000000000008D
:104040007FFE4002400240020000000030000C00F1
:1040500003800060001C00030000000040024002DA
:1040600040027FFE00000000000000000000200071
:10407000400040004000200000000001000100015D
:1040800000010001000100010001000040004000AB
:104090002000000000000000000000000098012443
:1040A00001440144014400FC000410001FFC00888E
:1040B0000104010400880070000000000070008806
:1040C0000104010401040088000000000070008861
:1040D0000104010411081FFC0004000000F8014461
:1040E00001440144014400C800000000010401042F
:1040F0000FFC1104110411001800000000D6012962
:104100000129012901C90106000010041FFC0084D7
:1041100001000100010400FC000400000104190476
:1041200019FC00040004000000000000000300016E
:104130000101190119FE0000000010041FFC0024F9
:10414000004001B4010C0104000000001004100440
:104150001FFC0004000400000000010401FC010435
:10416000010001FC0104010000FC010401FC0084C9
:1041700001000100010400FC0004000000F801043B
:1041800001040104010400F80000010101FF0085A1
:104190000104010400880070000000000070008825
:1041A00001040104010501FF00010104010401FCF7
:1041B00000840104010001800000000000CC012403
:1041C00001240124012401980000000001000100E5
:1041D00007F80104010400000000010001F80004D8
:1041E00000040004010801FC0004010001800170CA
:1041F000000C001001600180010001F0010C003092
:1042000001C00030010C01F0010000000104018C2C
:1042100000740170018C0104000001010181017131
:10422000000E001801600180010000000184010CF3
:10423000013401440184010C000000000000000072
:10424000000001003EFC40024002000000000000AF
:104250000000FFFF000000000000000040024002DC
:104260003EFC010000000000000000006000800033
:1042700080004000400020002000000000000000FE
:10428000000000000000000000000000000000002E
:10429000000000000000000000000000000000001E
:1042A000000000000000000000000000000F803847
:1042B0000FFE380F803800000000000000000000F2
:1042C00000000000000000000100000600000C00DB
:1042D000003800003100000600000C00003800002B
:1042E0003000000000000000000061800067F80757
:1042F000F98000618000618000618000618000675A
:10430000F807F98000618000000000000000000054
:1043100001C0E003E0F00630080418081FFFFE04A7
:104320000E080787F00381E000000000000001F0A4
:1043300000060C00040408060C7001F9C0000E0011
:10434000003BE000EC18070808040C180003E0002C
:1043500000000001E00007F003F818041C0804172F
:104360000807E1D003C0E00023B0003C08002008AB
:1043700000001000000000000001000031000032C9
:1043800000001C0000000000000000000000000011
:10439000000000000000000000000000000000001D
:1043A000000000000000000000007F0001FFC007C7
:1043B00080F00C0018100004200002000000000033
:1043C000002000021000040C00180780F001FFC05C
:1043D000007F00000000000000000000000000005E
:1043E0000000000000004200006600006600003C83
:1043F0000000180003FFC0001800003C0000660029
:1044000000660000420000000000080000080000F4
:10441000080000080000080001FFC00008000008B4
:104420000000080000080000080000000000000173
:1044300000003100003200001C00000000000000FD
:10444000000000000000000000000000000000006C
:104450000000080000080000080000080000080034
:104460000008000008000008000008000008000024
:1044700000000000000000000000380000380000CC
:1044800038000000000000000000000000000000F4
:1044900000000000000000000000000600001C00FA
:1044A0000070000180000E0000380000C00007000E
:1044B000001C0000300000000000000000007F80B1
:1044C00001FFE003807006001804000804000806DD
:1044D000001803807001FFE0007F800000000000F2
:1044E0000000000001000801000801000803FFF8B7
:1044F00007FFF800000800000800000800000000A6
:10450000000000000001C03802C0580400980401F7
:1045100018040218040418061C1803F81801E0F81F
:1045200000000000000000000001C0E003C0F00433
:10453000000804080804080806180803F41801E72E
:10454000F00001E000000000000000000000030097
:10455000000D000011000061000081080301080740
:10456000FFF80FFFF800010800010800000000003C
:10457000000000E007FCD006080806100806100836
:10458000061008061838060FF00607C000000000E5
:104590000000000000003F8001FFE00384300208BB
:1045A00018041008041008041008071810030FF06E
:1045B0000007C000000000000000000003C000076A
:1045C00000000600000600F80607F806180006E0DE
:1045D0000007000006000000000000000001E1E00C
:1045E00003F7F0063410041808041808040C080433
:1045F0000C0806161803F3F001C1E00000000000EB
:104600000000F80003FC3003063804020804020826
:104610000402080404100308F001FFC0007F00003A
:10462000000000000000000000000000000000008A
:104630000000703800703800703800000000000082
:10464000000000000000000000000000000000006A
:10465000000000000000301A00301C0000000000C4
:10466000000000000000000000000000000000004A
:1046700000080000140000220000410000808001BA
:1046800000400200200400100800080000000000A4
:104690000000210000210000210000210000210075
:1046A0000021000021000021000021000021000065
:1046B00000000000000000000800080400100200D4
:1046C0002001004000808000410000220000140012
:1046D00000080000000000000003C00004C0000447
:1046E0000000080038080F380808380810000C309F
:1046F0000007E00003C000000000000000003F8051
:1047000000FFE0038070020F1006708804C0880468
:104710008308047F8802C09003012000FE4000004F
:10472000080000180001F8003E0801C2000702005E
:1047300007E20000FE00001FC80001F8000038007A
:10474000000804000807FFF807FFF8040808040839
:104750000804080804080806180803F41801E7F01C
:104760000001E0000000000000003F8001FFE003C6
:104770008070020018040008040008040008040007
:10478000100600200780C000000004000807FFF8A2
:1047900007FFF804000804000804000804001802D9
:1047A000001003807001FFE0007F80000000040023
:1047B0000807FFF807FFF8040808040808040808B9
:1047C000040808043E080400080600180100600000
:1047D000000004000807FFF807FFF80408080408B1
:1047E00000040800040800043E0006000006000063
:1047F000018000000000000000003F8001FFE00396
:10480000807006001804000804020804020802036D
:10481000F00783F000020000020004000807FFF820
:1048200007FFF8040808000800000800000800005E
:10483000080004080807FFF807FFF8040008000054
:104840000000000004000804000804000807FFF846
:1048500007FFF80400080400080400080000000036
:104860000000000000000006000007000001040036
:104870000104000104000307FFFE07FFFC04000021
:1048800004000004000004000807FFF807FFF80414
:104890000C08001800003E0004C7800503C806008D
:1048A000F804003804001800000804000807FFF8A6
:1048B00007FFF804000800000800000800000800D6
:1048C000000800000800001800006000000004005C
:1048D0000807FFF807800807FC00007FC00003F806
:1048E0000007C000780007800807FFF807FFF804FA
:1048F000000804000807FFF807000803C00000E0F4
:1049000000003800001E000007000001C00400F095
:1049100007FFF8040000000000007F8001FFE003B3
:104920008070060018040008040008060018030040
:104930003001FFE0007F8000000004000807FFF85E
:1049400007FFF8040408040400040400040400043D
:104950000400060C0003F80001F000000000000055
:1049600000007F8001FFE00380700600880400885B
:104970000400C806003C03003E01FFE6007F8400FF
:10498000000004000807FFF807FFF80408080408FF
:1049900000040C00040F00040BC00610F003F038F4
:1049A00001E00800000800000001E0F803F0300614
:1049B0003010041808041808040C08040C08020637
:1049C000180207F00781E0000000018000060000E7
:1049D00004000004000004000807FFF807FFF804C3
:1049E000000804000004000006000001800004002C
:1049F0000007FFE007FFF0040018000008000008AF
:104A000000000800000800000804001007FFE00490
:104A1000000004000006000007E00007FE00041F7D
:104A2000E00001F80000380001E0043E0007C0008B
:104A300006000004000004000007E00007FFC004B7
:104A40001FF80007C007F80007FF80043FF80007C1
:104A5000C004F80007000004000000000004000883
:104A600006001807C07805F1C8003E00001F80044A
:104A700063E80780F806001804000800000004003E
:104A80000006000007800007E008047C08001FF80B
:104A90000007F800180804E00807000006000004FA
:104AA00000000000000100080600380400F80403BC
:104AB000E8040F08047C0805F00807C00807001880
:104AC0000400600000000000000000000000000082
:104AD00000000000003FFFFE200002200002200036
:104AE0000220000220000200000000000000000080
:104AF00008000007000000C00000380000060000A9
:104B000001C000003000000E0000010000000000A5
:104B1000000000002000022000022000022000020D
:104B20002000023FFFFE0000000000000000000027
:104B3000000000000000000000000008000010005D
:104B400000300000200000300000100000080000CD
:104B50000000000000000000010000010000010052
:104B60000001000001000001000001000001000040
:104B70000100000100000100000100000000000031
:104B800000000020000020000010000010000000C5
:104B90000000000000000000000000000000000015
:104BA000000000F00019F8001B1800220800260879
:104BB000002408002410003FF8001FF8000008003F
:104BC000001800000004000007FFF80FFFF00018B5
:104BD00018001008002008002008003018001FF0FE
:104BE000000FC00000000000000007C0001FF00020
:104BF0001830002008002008002008003C08001C95
:104C0000100000600000000000000000000007C06D
:104C1000001FF000381800200800200800200804B9
:104C2000101007FFF80FFFF0000010000000000058
:104C3000000000000007C0001FF000123000221822
:104C4000002208002208003208001E10000E20007A
:104C5000000000000000200000200800200801FFE4
:104C6000F803FFF8062008042008042008072000A5
:104C700003000000000000000000000E000E6E00A7
:104C80001FF30031B10020B10020B1003191001FAD
:104C900013002E1E00200E0030000000000400084B
:104CA00007FFF80FFFF800100800200000200000A8
:104CB0002008003FF8001FF8000008000000000076
:104CC00000000000002008002008002008063FF82F
:104CD000063FF8000008000008000008000000007F
:104CE000000000000000000000000300000300209E
:104CF00001002001002003063FFE063FFC000000EB
:104D000000000000000000000004000807FFF80F8A
:104D1000FFF8000188000300002FC00038F80020D1
:104D2000380020080000080000000000000000001B
:104D300004000804000804000807FFF80FFFF8004B
:104D4000000800000800000800000000000000202B
:104D500008003FF8003FF8001008002000003FF86E
:104D6000003FF8001008002000003FF8003FF80066
:104D70000008000000002008003FF8003FF8001085
:104D800008001000002000002008003FF8001FF875
:104D90000000080000000000000007C0000FF00045
:104DA00018300030080020080020080030080018E3
:104DB00030000FF00007C0000000000000002001DC
:104DC000003FFF003FFF00101100200900200800F5
:104DD0002008003038001FF0000FC0000000000065
:104DE000000007C0001FF00038180020080020084D
:104DF000002009001011001FFF003FFF000001000C
:104E00000000002008002008002008003FF8003FB4
:104E1000F8000808001008002008002000003000FA
:104E2000003000000000000000000000000C7800CE
:104E30001E180033080023080021080021880021E3
:104E4000980030F0003860000000000000002000F2
:104E500000200000200000FFF003FFF80020080001
:104E600020080020080000300000000000000000C2
:104E700000002000003FF0007FF80000180000084C
:104E8000000008002010003FF8007FF00000100034
:104E90000000000000002000003000003C00003F47
:104EA000800023F0000078000070002380003C00A8
:104EB000003000002000002000003C00003FE00027
:104EC00023F80000E0002700003E00003FE0002142
:104ED000F80001E0003E0000200000000000200873
:104EE000002008003838003E680027800003C80012
:104EF0002CF80038380020180020080000000000BE
:104F000000002000003003003C01003F830023EC40
:104F1000000070002380003C000020000020000002
:104F200000000000000000000038080020380020C9
:104F3000F80023E8002F88003E08003808002018F9
:104F400000007000000000000000000000000000F1
:104F500000000000000008000014001FF7FC3000F3
:104F60000620000200000000000000000000000019
:104F7000000000000000000000000000FFFFFF0034
:104F80000000000000000000000000000000000021
:104F9000000000002000023000061FF7FC00140093
:104FA00000080000000000000000000000000000F9
:104FB00000000000001800006000004000004000F9
:104FC00000200000100000080000040000040000A1
:104FD0000C000010000060E001200305350002080D
:104FE0001E08503C0F050000FF67500000181A1EF5
:104FF0001489280A302EBB0A03000002331D00006A
:1050000000000000003200002A1C5A94C50207006C
:105010000000B51F00902800773200623F00525018
:10502000005200000000000000000000000000002E
:105030000000000000000000000F0F03061042F8FF
:105040000F14000000001A18161412100E0C0A0893
:105050000000000000000000000000000000000050
:105060000000000029282422201F1E1D0E0C0A0803
:105070000605040200FF0000000000000000000020
:1050800000FFFFFFFFFFFFFFFFFFFFFFFFFF50815C
:105090005881608168817081203A200030000000D2
:1050A0003100000032000000330000003400000036
:1050B0003500000036000000370000003800000016
:1050C0003900000044454C00204E6F6E6500000022
:1050D000456E74657200000052657400FC50000853
:1050E00000000020AC000000C4010008A851000826
:1050F000AC000020FC080000E001000800000000F7
:105100000000FFFF00000000AD2E000800000000BE
:10511000000000000000000000000000000000008F
:10512000000000000000000000000000000000007F
:10513000000000000000000000000000000000006F
:10514000000102030401020304060708090000002D
:1051500000000000A0500008A4500008A85000085B
:10516000AC500008B0500008B4500008B850000817
:10517000BC500008C05000089C500008C4500008F3
:10518000D0500008D850000898500008C8500008B7
:105190003131313131000000000000000001000019
:0851A000000000000100000006
:040000050800018965
:00000001FF
