:020000040800F2
:10000000800800205D0B0008AD020008AF02000868
:10001000B3020008B7020008BB020008000000009D
:10002000000000000000000000000000BF02000807
:10003000C102000800000000C3020008C502000859
:10004000770B0008770B0008770B0008770B000888
:10005000770B0008770B0008770B0008770B000878
:10006000770B0008770B0008770B0008770B000868
:10007000770B0008770B0008770B0008770B000858
:10008000770B0008770B0008770B0008770B000848
:10009000770B0008770B0008770B0008770B000838
:1000A000770B0008770B0008770B0008770B000828
:1000B000770B0008770B0008770B0008770B000818
:1000C000770B0008770B0008770B0008770B000808
:1000D000770B0008D10A0008770B0008770B00089F
:1000E000770B0008770B0008770B0008770B0008E8
:1000F000770B0008770B0008770B0008770B0008D8
:10010000770B0008770B0008770B0008770B0008C7
:10011000770B0008770B0008770B0008770B0008B7
:10012000770B0008770B0008770B0008770B0008A7
:1001300000F002F800F03AF80AA090E8000C8244BF
:100140008344AAF10107DA4501D100F02FF8AFF29C
:10015000090EBAE80F0013F0010F18BFFB1A43F0A5
:1001600001031847EC1B00000C1C0000103A24BFD0
:1001700078C878C1FAD8520724BF30C830C144BF0C
:1001800004680C607047000000230024002500264E
:10019000103A28BF78C1FBD8520728BF30C148BFEA
:1001A0000B6070471FB51FBD10B510BD01F09DFD60
:1001B0001146FFF7F7FF00F05DF801F0BBFD03B457
:1001C000FFF7F2FF03BC00F029FC002100E0491C0E
:1001D0008142FCD3704770B504240CE0241DE0B2CA
:1001E0000022114600F079FA0546012100F0E8FAF4
:1001F000B42C00DB00E0F1E700BF192000F0E1FBC8
:100200000CE0241FE0B20022114600F066FA054619
:10021000012100F0D5FA052C00DC00E0F1E700BF79
:1002200070BD70B504240CE0E41CE2B20021084665
:1002300000F053FA0546012100F0C2FAB42C00DBAD
:1002400000E0F1E700BF142000F0BBFB0CE0E41E6F
:10025000E2B20021084600F040FA0546012100F014
:10026000AFFA032C00DC00E0F1E700BF142000F03F
:10027000A8FB70BD4FF4E13000F0DEFB00F064FB42
:1002800000F0C2F911E000F087F9012804D1FFF76E
:10029000C8FFFFF7A0FF08E000221146104600F05B
:1002A0001CFA0446142100F08BFAECE7704700BFFB
:1002B000FEE700BFFEE700BFFEE700BFFEE77047B6
:1002C00070477047704700000CB500200190009007
:1002D0006C48006840F480306A49086000BF694893
:1002E000006800F4003000900198401C01900098D4
:1002F00018B90198B0F5A06FF1D16248006800F418
:10030000003010B10120009001E000200090009822
:10031000012843D15C48006840F010005A49086049
:100320000846006820F0030008600846006840F0B6
:1003300002000860534840685249486008464068D7
:1003400048600846406840F480604860084640685D
:1003500020F47C1048600846406840F4E81048608B
:100360000846006840F08070086000BF454800689B
:1003700000F000700028F9D04248406820F00300E7
:10038000404948600846406840F00200486000BFAD
:100390003C48406800F00C000828F9D10CBD10B5AD
:1003A000FFF792FF10BD10B53648006840F001001D
:1003B000344908600846406834490840314948607B
:1003C00008460068324908402E490860084600681F
:1003D00020F4802008600846406820F4FE00486051
:1003E0004FF41F008860FFF7DAFF4FF000602949E3
:1003F000086010BD10B5002100200022214B5B6871
:1004000003F00C0121B1042906D0082928D107E006
:10041000214B224C236027E01F4B204C236023E01C
:10042000184B5B6803F47010164B5B6803F4803262
:10043000022303EB904022B9194B4343174C23602E
:100440000DE0104B5B6803F4003323B1144B4343BE
:10045000124C236003E0104B4343104C236003E035
:100460000D4B0E4C236000BF00BF064B5B68C3F30F
:1004700003130C4CE15C094B1B68CB40074C236019
:1004800010BD000000100240002002400000FFF8F4
:10049000FFFFF6FE08ED00E000127A0000000020E9
:1004A00000093D000400002008B50121442000F0AF
:1004B000FFFE1820ADF8000048208DF803006946C3
:1004C000394800F039FC0120ADF8000028208DF8F3
:1004D00003006946354800F02FFC08BD10B50446FE
:1004E00014B10120324908703148007858B3102106
:1004F0002D4800F0B4FC50B108212B4800F0AFFCAF
:1005000028B10121294800F0AAFC01281BD10A20AA
:1005100000F057FA0020264908701021224800F008
:100520009EFC08B9012010BD08211F4800F097FC6F
:1005300008B90220F7E701211C4800F090FC0128CF
:1005400015D10320EFE71021174800F088FC01289F
:100550000DD10821144800F082FC012807D10121A7
:10056000124800F07CFC10B90120114908700020ED
:10057000D9E708B50121042000F09AFE2020ADF84B
:10058000000004208DF8030003208DF80200694666
:10059000064800F0D1FB08BD10B52021034800F04B
:1005A0005EFC0446204610BD0018014000080140D2
:1005B0001400002010B50021DF4801F0AEF94FF41F
:1005C000007001F0D9F94FF49071DB4801F0BAF9ED
:1005D0000121D94801F0A1F910BD70B500240EE049
:1005E000002508E0E02004EB4401D44A02EBC101FD
:1005F0004855681CC5B2182DF4DB601C84B20C2C65
:10060000EEDBFFF7D7FF70BD00B591B001210420EC
:1006100000F04EFE0121080300F04AFE01210846C9
:1006200000F039FE8020ADF8400018208DF843001E
:1006300003208DF8420010A9C14800F07DFB4FF463
:100640004040ADF82C004FF48270ADF82E00002031
:10065000ADF83000ADF832000120ADF834004002B2
:10066000ADF836001020ADF838000020ADF83A00A3
:100670000720ADF83C000BA9B24801F0D1F90121E7
:10068000B04801F072FA01220221AE4801F095FA59
:10069000A94801F075F8AB480C300090A7480190CC
:1006A000102002904FF4907003900020049080205E
:1006B000059000200690079008904FF48050099014
:1006C00000200A9069469C4801F0FCF8FFF785FF7E
:1006D000642000F076F911B000BD0346080440EA3A
:1006E00003201043704730B502460C2A13DA00206D
:1006F0000FE001FA00F303F400030BB1F82300E06C
:10070000E02302EB42048D4D05EBC4042354431C4B
:10071000D8B21828EDDB30BD2DE9F04105460E4674
:10072000174698460C2D17DA002413E04246394646
:100730003046FFF7D2FFA04000F4000008B1F820D7
:1007400000E0E02005EB45017C4A02EBC1010855C1
:10075000601CC4B2182CE9DBBDE8F08110B504467A
:10076000C4F1FF04552C0BDA04EB4401CAB204EBCC
:100770004401C1F1FF01C8B20021FFF7AEFF10BD77
:10078000AA2C0EDAA4F15500C4B204EB4400C0F167
:10079000FF00C2B204EB4400C1B20020FFF79DFF8E
:1007A000EDE7A4F1AA00C4B204EB4402C2F1FF02D7
:1007B000D1B204EB4402D0B20022FFF78EFFDEE795
:1007C00070B505460E4600240AE029462046FFF78C
:1007D0008AFFFFF7EFFE304600F0F3F8601C84B2AA
:1007E0000C2CF2DB70BD2DE9F0410646002515E02A
:1007F00000240AE06119C8B2FFF7B0FF0746394686
:100800002046FFF770FF601C84B20C2CF2DBFFF770
:10081000D1FE304600F0D5F8681C85B2FF2DE7DD2B
:10082000BDE8F0812DE9F041064600251BE00024DB
:1008300010E020020C2190FBF1F0284400F0FF08AA
:100840004046FFF78BFF074639462046FFF74BFF30
:10085000601C84B20C2CECDBFFF7ACFE304600F0E1
:10086000B0F8681C85B2B5F5A06FE0DBBDE8F0819B
:100870002DE9F04106460F464FF0000821E0002424
:100880001BE0002506E0291988B23146FFF72BFF4F
:10089000E81C85B20C2DF6DBFFF78CFE384600F025
:1008A00090F8002506E0291988B20021FFF71BFF08
:1008B000E81C85B20C2DF6DB641C032CE1DB08F18F
:1008C0000108B8F10A0FDADBBDE8F0812DE9F04745
:1008D000074600262CE0002427E0002512E0A81996
:1008E000FF2190FBF1F201FB120000F0FF094846E6
:1008F000FFF734FF8046291988B24146FFF7F3FE1F
:10090000E81C85B20C2DEADBFFF754FE384600F0F8
:1009100058F8002506E0291988B20021FFF7E3FE08
:10092000E81C85B20C2DF6DB641C032CD5DB761C91
:10093000FF2ED0DDBDE8F0873000024038000020F7
:10094000000801400030014010B56FF0040000F0D5
:1009500074F92E4800682E49B0FBF1F02D4908705B
:100960000846007800EB4001C1EBC0104FF6FF7164
:1009700001EAC0002849088010BD0146254A1278C6
:100980004A434FF0E0235A6100229A611A461269E5
:1009900042F001021A6100BF4FF0E022106900F03E
:1009A00001021AB100F48032002AF5D04FF0E022A3
:1009B000126922F001024FF0E0231A6100229A61CD
:1009C00070470146144A12884A434FF0E0235A61A7
:1009D00000229A611A46126942F001021A6100BFB0
:1009E0004FF0E022106900F001021AB100F48032E9
:1009F000002AF5D04FF0E022126922F001024FF0F8
:100A0000E0231A6100229A61704700000000002074
:100A100000127A00160000201800002000BF704766
:100A200000BF4A4A128802F04002002AF9D0C2B23E
:100A3000464B1B1D1A80704710B586B00446012135
:100A400044F2040000F034FC4FF40070ADF81400E0
:100A500003208DF8160018208DF8170005A93C48D2
:100A600000F06AF94FF48060ADF8140004208DF8AE
:100A7000170005A9364800F05FF925208DF8000021
:100A800003208DF801008DF8020001208DF803008D
:100A9000684600F088F801940020ADF80800ADF831
:100AA0000A00ADF80C00ADF810000C20ADF80E00F7
:100AB00001A9264800F0A3FC012240F22551234859
:100AC00000F035FD0121214800F025FD06B010BDE4
:100AD00010B540F225511D4800F00EFE10B31B4822
:100AE00000F08AFDC4B21B48008800F40040C8B979
:100AF0001848008800F4804060B10A2C03D0002020
:100B00001449088020E01348008840F4004011494F
:100B1000088019E00D2C06D10E48008840F4804072
:100B20000C49088010E00B480088C0F30D000A490A
:100B30000C5408480088401C064908800846008874
:100B4000C72801DD0020088010BD000000380140EA
:100B5000000801402000002058010020094880477B
:100B600009480047FEE7FEE7FEE7FEE7FEE7FEE78F
:100B7000FEE7FEE7FEE7FEE704480549054A064BA7
:100B800070470000A7030008310100088002002020
:100B900080080020800400208004002031490143A7
:100BA000314A1160704770B5002100230F22C478CC
:100BB00004B32D4C246804F4E064C4F5E064210A15
:100BC000C1F10403CA40447804FA03F18478144064
:100BD00021430901254C0678A155047804F01F052E
:100BE0000124AC4005786D11AD0005F1E025C5F894
:100BF000004109E0047804F01F050124AC401C4DBD
:100C00000678761145F8264070BD1A4A0A4002431C
:100C1000154B1B1F1A60704739B1134A121D126819
:100C20000243114B1B1D1A6006E00F4A121D126889
:100C300082430D4B1B1D1A607047042808D14FF0EA
:100C4000E021096941F004014FF0E022116107E061
:100C50004FF0E021096921F004014FF0E022116119
:100C6000704700000000FA050CED00E000E400E031
:100C700080E100E080FFFF1F10B50446CC488442AD
:100C800008D10121042000F02DFB0021042000F0F8
:100C900029FB46E0C748844208D10121082000F022
:100CA00021FB0021082000F01DFB3AE0C2488442ED
:100CB00008D10121102000F015FB0021102000F0C8
:100CC00011FB2EE0BD48844208D10121202000F014
:100CD00009FB0021202000F005FB22E0B8488442F7
:100CE00008D10121402000F0FDFA0021402000F051
:100CF000F9FA16E0B348844208D10121802000F0BF
:100D0000F1FA0021802000F0EDFA0AE0AE488442BA
:100D100007D10121801500F0E5FA0021A01500F0AF
:100D2000E1FA10BD10B50121084600F0DBFA002100
:100D3000012000F0D7FA10BD2DE9F0410246002550
:100D40000026002000230024002791F803C00CF0A7
:100D50000F0591F803C00CF0100CBCF1000F03D08C
:100D600091F802C04CEA050591F800C0BCF1000FF3
:100D700031D0146800202BE04FF0010C0CFA00F386
:100D8000B1F800C00CEA03069E4220D183004FF068
:100D90000F0C0CFA03F7BC4305FA03FC4CEA0404FD
:100DA00091F803C0BCF1280F06D14FF0010C0CFAEA
:100DB00000FCC2F814C00AE091F803C0BCF1480F6F
:100DC00005D14FF0010C0CFA00FCC2F810C0401C19
:100DD0000828D1D31460B1F800C0BCF1FF0F34DD96
:100DE000546800202EE000F1080C4FF0010808FACA
:100DF0000CF3B1F800C00CEA03069E4221D1830037
:100E00004FF00F0C0CFA03F7BC4305FA03FC4CEA55
:100E1000040491F803C0BCF1280F05D100F1080CBF
:100E200008FA0CF8C2F8148091F803C0BCF1480F1E
:100E300007D100F1080C4FF0010808FA0CF8C2F8CD
:100E40001080401C0828CED35460BDE8F0814FF6D6
:100E5000FF710180022181700421C1707047024638
:100E6000002093680B400BB1012000E00020704788
:100E70000146886880B2704702460020D3680B4064
:100E80000BB1012000E0002070470146C86880B225
:100E9000704701617047416170470AB1016100E02C
:100EA00041617047C16070474FF480320A438261EC
:100EB0008161826182698269704702460020434BEA
:100EC00018684FF68073184040EA021008433F4B01
:100ED000186070473E49C8617047F0B50A46002364
:100EE00000240021002500F00046B6F1004F02D199
:100EF000364EF16901E0354E7168C0F3034583B2A7
:100F000000F44016B6F5401F08D121F070612F4E55
:100F1000766826F070662D4F7E6012E000F4801631
:100F2000B6F5801F06D1032606FA05F4A14341F069
:100F3000706106E0460D360103FA06F6B14341F052
:100F4000706122B1460D360103FA06F6314300F016
:100F50000046B6F1004F02D11C4EF16101E01B4E7C
:100F60007160F0BD30B500228B071C0F0F2303FA10
:100F700004F2164B08338C1053F824309343134C6F
:100F800008348D1044F8253023468C1053F8243053
:100F90008C07240F00FA04F423430C4C08348D1002
:100FA00044F8253030BD0A49DC3108607047000044
:100FB00000080140000C01400010014000140140F5
:100FC00000180140001C01400020014000000140C9
:100FD00000002042DF48006840F00100DD49086061
:100FE00008464068DC490840DA494860084600681D
:100FF000DA490840D74908600846006820F4802094
:1010000008600846406820F4FE0048604FF41F0066
:1010100088607047CF49096821F48031CD4A11605A
:101020001146096821F480211160B0F5803F03D09A
:10103000B0F5802F0ED106E0C649096841F4803131
:10104000C44A116007E0C349096841F4A021C14ABC
:10105000116000E000BF00BF704710B501460022DC
:10106000002300204A11012A02D1BA4C236806E06D
:10107000022A02D1B74C236A01E0B64C636A01F040
:101080001F02012494401C400CB1012000E000200C
:1010900010BD38B5002000900024002500BF31208D
:1010A000FFF7DBFF05460098401C00900098B0F564
:1010B000A06F01D0002DF2D03120FFF7CEFF08B194
:1010C000012400E00024204638BD01460020A14A4A
:1010D000106820F0F80040EAC10010607047A04995
:1010E00008607047024600209A4B586820F47C1034
:1010F00042EA01031843974B5860704798490866C5
:10110000704701460020934A506820F003000843CE
:10111000506070478F48406800F00C0070470146EF
:1011200000208C4A506820F0F0000843506070475F
:1011300001460020874A506820F4E0600843506070
:10114000704701460020834A506820F4605040EA0E
:10115000C1005060704729B17E4A527A02437D4BEC
:101160005A7204E07B4A527A82437A4B5A72704731
:101170007B49D8310860704701460020754A5068A5
:1011800020F440400843506070470021714A2032EB
:101190001170704A82F82010012802D004280AD168
:1011A00004E001216B4A2032117005E00521694AF3
:1011B0002032117000E000BF00BF7047694908602D
:1011C00070476449096A0143624A11627047654980
:1011D00044390860704730B5002100220024002304
:1011E0005C4D6D6805F00C0121B1042905D008297A
:1011F00023D105E05C4D056022E05B4D05601FE0FA
:10120000544D6D6805F47012524D6D6805F48034CC
:10121000022505EB92421CB9544D554305600BE085
:101220004C4D6D6805F400351DB1504D55430560BA
:1012300002E04D4D5543056002E04B4D056000BF97
:1012400000BF444D6D6805F0F0010909484D6B5C25
:101250000568DD4045603F4D6D6805F4E061090AB1
:10126000434D6B5C4568DD4085603A4D6D6805F423
:101270006051C90A3E4D6B5C4568DD40C560354D27
:101280006D6805F44041890B3A4D6B5CC568B5FB50
:10129000F3F5056130BD29B12E4A526902432D4B49
:1012A0005A6104E02B4A526982432A4B5A617047C3
:1012B00029B1284A92690243264B9A6104E0254AE3
:1012C00092698243234B9A61704729B1214AD269BE
:1012D0000243204BDA6104E01E4AD26982431D4B6F
:1012E000DA61704729B11B4AD2680243194BDA60B0
:1012F00004E0184AD2688243164BDA60704729B17D
:10130000144A12690243134B1A6104E0114A12692C
:101310008243104B1A617047124940390860704788
:101320000F49C86470470B49C87170470948406A43
:1013300040F0807007494862704701460020054A26
:1013400092680A400AB1012000E00020704701497C
:1013500088727047001002400000FFF8FFFFF6FEA1
:10136000000042428004424200127A0000093D001F
:10137000220000203200002010B50446FB488442C1
:1013800009D101218803FFF7ADFF00214FF4804010
:10139000FFF7A8FF32E0F648844209D10121480452
:1013A000FFF7ADFF00214FF40030FFF7A8FF25E065
:1013B000F048844209D101218804FFF7A0FF0021F1
:1013C0004FF48020FFF79BFF18E0EB48844209D1DF
:1013D0000121C804FFF793FF00214FF40020FFF71D
:1013E0008EFF0BE0E548844208D101210805FFF794
:1013F00086FF00214FF48010FFF781FF10BD2DE91B
:10140000F04786B005460E460024A24600BFA1461E
:101410000027B08900B100BF2F462C8A4CF6FF7020
:101420000440F08804432C82AC894EF6F31004404B
:10143000B08831890843718908430443AC81AC8A80
:101440004FF6FF400440B0890443AC8201A8FFF787
:10145000C2FEC648874202D1DDF810A001E0DDF8E7
:101460000CA0A88900F4004040B10AEBCA0000EBD0
:101470000A1031684900B0FBF1F807E00AEBCA0036
:1014800000EB0A1031688900B0FBF1F86420B8FB6A
:10149000F0F004012009642101FB1089A88900F4FF
:1014A000004040B1322000EBC900B0FBF1F000F089
:1014B0000700044308E0322000EB09106421B0FB70
:1014C000F1F000F00F0004432C8106B0BDE8F08776
:1014D0004FF41651016000218180C18001810C21EF
:1014E000418100218181704710B502460020108A99
:1014F0004FF2FF0318400B884C8823438C8823430A
:10150000CC8823431843108210BD00210180418004
:101510008180C180704721B1828942F4005282816A
:1015200004E082894DF6FF731A4082817047F0B55E
:101530000346002400260025002040F66A17B94221
:1015400000D100BF1846C1F3421401F01F06012765
:1015500007FA06F5012C01D10C3004E0022C01D170
:10156000103000E014301AB107682F43076002E022
:101570000768AF430760F0BD1AB1838A0B438382CB
:1015800002E0838A8B4383827047028A4FF6F073AE
:101590001A400282028A0A430282704782894FF20D
:1015A000FF731A40828182890A438281704721B188
:1015B000828942F00202828104E082894FF6FD7343
:1015C0001A4082817047028A4FF6DF731A40028206
:1015D000028A0A430282704721B1028A42F48042A1
:1015E000028204E0028A4BF6FF731A4002827047BF
:1015F000C1F308028280704701468888C0F3080062
:101600007047818941F0010181817047028BD2B21C
:101610000283028B42EA012202837047028B02F4AA
:101620007F420283028B0A430283704721B1828A80
:1016300042F02002828204E0828A4FF6DF731A4071
:101640008282704721B1828A42F01002828204E0D5
:10165000828A4FF6EF731A408282704721B1828AE4
:1016600042F00802828204E0828A4FF6F7731A4041
:101670008282704721B1828942F40042828103E074
:101680008289C2F30E028281704721B1828A42F4BC
:101690000062828204E0828A4FF2FF731A408282E3
:1016A0007047828A4FF6FB731A408282828A0A430D
:1016B0008282704721B1828A42F00202828204E073
:1016C000828A4FF6FD731A408282704702460020DC
:1016D000B1F5007F00D100BF13880B400BB1012092
:1016E00000E00020704701F40072B2F5007F00D1E5
:1016F00000BFCA430280704770B502460024002331
:101700000025002040F66A16B14200D100BFC1F3A7
:10171000421501F01F03012606FA03F3012D02D141
:101720009689334006E0022D02D1168A334001E04B
:10173000968A33400C12012606FA04F416883440C7
:1017400013B10CB1012000E0002070BD10B50022E3
:10175000002340F66A14A14200D100BF0A120124FE
:101760009440A3B2DC43048010BD00000038014067
:101770000044004000480040004C00400050004041
:1017800001684FF6FE721140016000210160416066
:101790008160C1608D49884208D18C490839496807
:1017A00041F00F01894A083A51608AE087491431B3
:1017B000884208D185490839496841F0F001834AD7
:1017C000083A51607DE081492831884208D17F493B
:1017D0000839496841F470617C4A083A516070E008
:1017E0007A493C31884208D178490839496841F43E
:1017F0007041764A083A516063E07449503188423A
:1018000008D172490839496841F470216F4A083A91
:10181000516056E06D496431884208D16B490839FE
:10182000496841F47001694A083A516049E06749E2
:101830007831884208D165490839496841F07061BA
:10184000624A083A51603CE06149884206D1011F72
:10185000096841F00F01021F116032E05C49143148
:10186000884208D15A49091F096841F0F001584AD5
:10187000121F116025E056492831884208D1544989
:10188000091F096841F47061514A121F116018E084
:101890004F493C31884208D14D49091F096841F43C
:1018A00070414B4A121F11600BE049495031884288
:1018B00007D14749091F096841F47021444A121FA2
:1018C0001160704710B50022026847F6F0739A4322
:1018D0000C6A8B6823430C6923434C6923438C694E
:1018E0002343CC6923434C6A23438C6A23431A4322
:1018F0000260CB6843600B6883604B68C36010BDB7
:101900000021016041608160C160016141618161CC
:10191000C161016241628162704721B1026842F097
:101920000102026004E002684FF6FE731A40026092
:1019300070471AB103680B43036002E003688B43EE
:1019400003607047416070470146486880B2704745
:1019500001460020002201F080531BB11C4B083BC4
:101960001A6802E0194B083B1A6802EA01030BB13E
:10197000012000E00020704700F0805119B11449A7
:10198000091F086002E011490839486070470146A4
:101990000020002201F080531BB10D4B083B1A6858
:1019A00002E00A4B083B1A6802EA01030BB101206E
:1019B00000E00020704700F0805119B10449091F70
:1019C000086002E001490839486070470800024099
:1019D0000804024010B50446BE48844208D10121E3
:1019E0008014FFF77FFC0021A014FFF77BFC16E0BA
:1019F000B948844208D101210014FFF780FC00217E
:101A00002014FFF77CFC0AE0B448844207D101218E
:101A1000C013FFF774FC0021E013FFF770FC10BD4A
:101A200010B50022028802F441520B884C882343EF
:101A30008C882343CC8823430C8923434C8923433C
:101A40008C892343CC8923431A430280838B4FF232
:101A5000FF74234083830B8A038210BD2DE9F04F6E
:101A600085B005460C464FF0000902274FF00008EC
:101A70004FF0010B0026B246A88B4FF24001084000
:101A8000A88302202884B5F81C90A068022801D100
:101A900000BF38E0A08810B94FF0010B01E04FF013
:101AA000020B8D48854200D100E000BF6846FFF779
:101AB00092FBDDF800A0E088B0F5007F0AD14FEA84
:101AC0001A2000EB80004000A168B0FBF1F0401D3F
:101AD00086B20BE04FEA4B10BAFBF0F000EB80004F
:101AE0004000A168B0FBF1F0401D86B20A20B6FBB1
:101AF000F0F606F00108A6EB0800C0F34F074FF61A
:101B0000FF7000EA0828022F01DBFF2F02DD022709
:101B10004FF00008E08840EA080038432884A08895
:101B2000A1890843618808432188084340F4006084
:101B300040EA0909A5F81C9005B0BDE8F08F002126
:101B4000018041808180C180018141818181C18189
:101B50000721018270470021018041808180C1807E
:101B60000221816000218181704721B1028842F009
:101B70004002028004E002884FF6BF731A400280E0
:101B8000704721B1828B42F48062828304E0828BB1
:101B90004FF6FF331A408283704730B5002400238C
:101BA0000C110125A540ABB21AB185881D43858073
:101BB00002E085889D43858030BD1AB183880B4340
:101BC000838002E083888B438380704781817047E4
:101BD0000146888970474FF6FF62914204D002881F
:101BE00042F48072028004E002884FF6FF631A40DC
:101BF0000280704721B1828842F00402828004E0B2
:101C000082884FF6FB731A408280704702884FF239
:101C1000FF731A40028002880A43028070470188DD
:101C200041F480510180704721B1028842F4005292
:101C3000028004E002884DF6FF731A40028070476C
:101C400002460020012901D0108B00E0908A7047E5
:101C50000146088A7047B1F5804F04D1028842F4EA
:101C60008042028004E002884BF6FF731A40028033
:101C700070470246002013890B400BB1012000E0A1
:101C800000207047CA4302817047F0B50246002029
:101C900000240023002501F00F070126BE40B4B246
:101CA0000B1101269E40B3B2968806EA03051689F9
:101CB000264016B10DB1012000E00020F0BD10B5A6
:101CC000002201F00F040123A3409AB2D343038101
:101CD00010BD00000030014000380040003C0040D2
:101CE00070477047704770477047754600F02CF892
:101CF000AE4605006946534620F00700854618B0F9
:101D000020B5FEF739FFBDE820404FF000064FF048
:101D100000074FF000084FF0000B21F00701AC4620
:101D2000ACE8C009ACE8C009ACE8C009ACE8C0093F
:101D30008D46704710B50446AFF300802046BDE8DD
:101D40001040FEF73CBA0000004870472002002017
:101D5000701D000800000020380000006C01000821
:101D6000A81D00083800002048080000880100086D
:101D700000A24A0400000000000000000102030469
:101D80000607080901000000000000000000000034
:101D90000000000000000102030401020304060722
:081DA000080902040608000016
:0400000508000131BD
:00000001FF
